:020000041102E7
:1000000003B40148019001BDADAE000003B4014846
:10001000019001BD456B010003B40148019001BD91
:100020000189000003B40148019001BDC53F0000F3
:1000300003B40148019001BDE94C010003B401483B
:10004000019001BDC95C010003B40148019001BDEC
:10005000CD4C010003B40148019001BD618900004D
:1000600003B40148019001BD154D010003B40148DE
:10007000019001BDF54E010003B40148019001BD9E
:10008000434D010003B40148019001BD2526000045
:1000900003B40148019001BD8B52010003B4014833
:1000A000019001BDB352010003B40148019001BDAC
:1000B0000D52010003B40148019001BDC94A01007D
:1000C00003B40148019001BD691F000003B4014859
:1000D000019001BD5D17000003B40148019001BD0E
:1000E0003D4B010003B40148019001BD595201008C
:1000F00003B40148019001BD5125000003B401483B
:10010000019001BD014C010003B40148019001BD03
:10011000594F010003B40148019001BD1D4B01007E
:1001200003B40148019001BD8D12000003B40148E1
:10013000019001BD4D1F000003B40148019001BDB5
:100140005522000003B40148019001BDDD520100B9
:1001500003B40148019001BD1D4D010003B40148E5
:10016000019001BD810E000003B40148019001BD62
:10017000017F000003B40148019001BDE1170000B8
:1001800003B40148019001BD7918000003B401488F
:10019000019001BDD949010003B40148019001BD9E
:1001A000E928000003B40148019001BD5549010050
:1001B00003B40148019001BD4551010003B4014859
:1001C000019001BDC926000003B40148019001BDA2
:1001D0001DBC000003B40148019001BD6DBC0000CE
:1001E00003B40148019001BD3555000003B4014836
:1001F000019001BDC51D000003B40148019001BD7F
:10020000B161000003B40148019001BD315F0000FD
:1002100003B40148019001BDDD5E000003B4014854
:10022000019001BDA552000003B40148019001BD39
:10023000090E000003B40148019001BD35540000CF
:1002400003B40148019001BD4932FF1F03B40148C6
:10025000019001BD810E000003B40148019001BD71
:10026000D554000003B40148019001BD19550000A8
:1002700003B40148019001BDE531FF1F03B40148FB
:10028000019001BDF94C010003B40148019001BD8A
:10029000C521000003B40148019001BD291C0000E4
:1002A00003B40148019001BD851F000003B401485B
:1002B000019001BDA946010003B40148019001BDB0
:1002C0001147010003B40148019001BD3129FF1F0E
:1002D00003B40148019001BD5128FF1F03B4014838
:1002E000019001BD792FFF1F03B40148019001BDAA
:1002F0004D29FF1F03B40148019001BDE12EFF1FEE
:1003000003B40148019001BDE52FFF1F03B401486C
:10031000019001BD1D28FF1F03B40148019001BDDC
:10032000D531FF1F03B40148019001BD1B1DFF1F04
:1003300003B40148019001BDF51CFF1F03B401483F
:10034000019001BD3D2AFF1F03B40148019001BD8A
:10035000952AFF1F03B40148019001BDB13E000082
:1003600003B40148019001BD6921FF1F03B4014896
:10037000019001BD2124000003B40148019001BD9A
:10038000BD21FF1F03B40148019001BDC90E00004B
:1003900003B40148019001BD9D1DFF1F03B4014836
:1003A000019001BD392FFF1F03B40148019001BD29
:1003B000B11F000003B40148019001BDD91F000026
:1003C00003B40148019001BDAD21000003B4014810
:1003D000019001BDE548000003B40148019001BD52
:1003E0002951010003B40148019001BDD91B00004F
:1003F00003B40148019001BD091B000003B401488A
:10040000019001BD311B000003B40148019001BD02
:100410001D3EFF1FF8B5CA49C84A002006464A607B
:100420008300401CD650FF28FADD4868C54A0146C3
:1004300080318A606E22C262C34A1278002A01D0DB
:100440007F22C2620A22C14B02651A788263C04AC7
:10045000C2611A780424022A05D01A78032A02D02D
:100460001A78042A00D10462BA4A42611922920120
:1004700082613722CA603622C2633425082245646D
:100480003E2702644F6032270F603B27CF63492726
:10049000CF640E4639274036A4C632270F6502279F
:1004A0000F6642270836A4C61E274F66CD668A66A9
:1004B00005254D6742250D675A250D614A613C228D
:1004C0008A61AF22D2000260A34A02631D7806222D
:1004D000022D06D01D78032D39D01D78042D01D0B2
:1004E00001E00D244460FF242D348460C460FF24A7
:1004F000F5340461994C84647D24E400984FCC6702
:10050000C7644462974C8462062273244265C465C2
:100510008265C21D0825F9320224156044664B2409
:10052000E40084660924C4668F4C0026703070C0D5
:10053000A61006608D4E37601E787C38022E08D0DB
:100540001E78032E09D01B78042B09D00BE04260E3
:10055000C9E71223CB61192304E00623CB6101E034
:100560000A23CD610B627D4B8B627D23DB008B67A1
:1005700064234B620523CB6202230B63C8234B63C6
:1005800000238B633821516079491164AF21C90080
:1005900091614B21C900D161764911627D21090128
:1005A0005162D3669465D4650F21136791667249D1
:1005B0001166516451676649FF30323991676F495E
:1005C000D1676F4A8130026082604160FF21F5315E
:1005D000C16001616C486B49584A81606B49803A3F
:1005E000116169496A4A80318A626A4ACA626A4903
:1005F00081616A49C1626A4901636A48624940315E
:1006000088616A49684888605F4869498038416004
:10061000684941635C486849C03801606749816046
:10062000624867494038016366494163FFF7E8FC67
:100630000120FFF7EBFCF8BDF3B50746624881B037
:10064000C169624A1140FF310931C161002613E0DE
:1006500000252C461120FFF7DFFC5B48406A80072D
:10066000800F610088402843641CE4B20546102CCA
:10067000F0D301C7761CF6B202988642E8D3FEBDDD
:1006800010B52F4C607800280AD104215048FFF79C
:10069000D3FF4F4804211030FFF7CEFF01206070D8
:1006A00010BDF0B500248BB00D460646102902D9C6
:1006B00001200BB0F0BDFFF7E3FF454900200A5CC5
:1006C000401C1419C0B21028F9D3002C03D0102DEF
:1006D00003D90B20EDE70E20EBE73E483C4C00230E
:1006E000006802A91034E25CC75C7A40CA545B1C03
:1006F000DBB2102BF7D306AA3548FFF793FC102D79
:1007000000D910252A4606A93046FFF791FCFFF7CD
:1007100095FC216840182060FFF790FC6168401844
:100720006060FFF78BFCA1684018A060FFF786FCB3
:10073000E1684018E0600020BBE700000004FF1FF4
:100740005C4AFF1FB87CFF1F3446FF1F4A0AFF1F89
:100750000E06000080C3C9019A02000050C30000C9
:10076000F81100006A180000204E0000F009FF1F79
:1007700000400011C40900008813000040420F002F
:10078000102700006536FF1F0001FF1F891FFF1F94
:100790004D3AFF1F1D3DFF1F391FFF1F6D1FFF1F1C
:1007A000531FFF1F751DFF1F2921FF1F0002FF1F81
:1007B0005D34FF1FB934FF1FD920FF1F4520FF1FE5
:1007C0006934FF1F1D34FF1F40F0004000FEFEFF94
:1007D000F472FF1F304BFF1F0A7802708A78427054
:1007E0004A88120A82700979C170042070470A7819
:1007F00002700988090A41700220704710B5002272
:100800000EE093005B189C7804705C88521C240AEC
:1008100044701C7984709B88D2B21B0AC370001D7F
:100820000B789342EDD81806800D10BDF8B50D4633
:1008300006464978012031700024761C16E069785C
:10084000012917D01221614349198A7832704A88E8
:10085000871C120A7270B61C10223046091DFFF761
:10086000E7FB1037B8B21036641CE4B22978A14215
:10087000E5D8F8BDA10049198A7832704A88871CEA
:10088000120A7270B61C02223046091DFFF7D0FB17
:10089000BF1CB8B2B61CE7E710B50C46097801706A
:1008A0002188090A4170A278E11C801CFFF7C0FB77
:1008B000A078801C10BD10B50C4609780170218805
:1008C000090A4170A17881706188090AC170227992
:1008D000611D001DFFF7ACFB2079001D10BD10B598
:1008E0000C460A78491CFFF7A3FB207810BD10B511
:1008F0000B784A7802705343DCB22246401C891CB4
:10090000FFF796FB601C10BD10B50B784A7802709B
:100910005343DCB22246401C891CFFF789FB601C54
:1009200010BD10B50C460A78491CFFF781FB2078F2
:1009300010BD10B50C460A78491CFFF779FB2078EA
:1009400010BD7FB515460446022901D0102903D1F8
:10095000022B04D0102B02D0002004B070BD9942AD
:1009600002D10A46294607E01029694607D000F05F
:100970000DF8102269462846FFF766FBEDE71046A2
:1009800000F004F8102269462046F5E770B50C46E1
:1009900005000CD0002C0AD0102206492046FFF793
:1009A00047FB2878207368786073012070BD0020B1
:1009B00070BD00004481021110B50B4601220249AE
:1009C00002F0C6F810BD0000D907021170B5064646
:1009D00008880C46172812D30B46032209493046D3
:1009E00002F0B6F8050008D1074920880988884236
:1009F00000D20146304600F0C9F9284670BD0220F9
:100A000070BD0000EF070211724AFF1F10B50023EE
:100A10001922194602F09CF810BD000010B50A78A2
:100A2000002A05D00B460722024902F091F810BDBA
:100A3000022010BDFD07021110B54A78012A01D02D
:100A4000022A08D10A78002A05D00B46052203495C
:100A500002F07EF810BD022010BD00002D0802112A
:100A600001494000085A70473473FF1F10B50B4608
:100A70001D22024902F06CF810BD00009908021115
:100A800010B50B461B22024902F062F810BD0000AF
:100A9000990802110020044917224300401CCA5241
:100AA0000828FADB704700003473FF1F0098022B00
:100AB00001D0042070471178527812028918018001
:100AC000002070470098012B01D004207047117856
:100AD00001700020704770B5049C1E461546062B19
:100AE0001BD369782878090240182080E978A87813
:100AF00009024018608002222271291D601DFFF743
:100B000097FAB61FF2B2E271F02A06D82046A91D64
:100B10000830FFF78DFA002070BD042070BD0098EA
:100B2000042B01D004207047537811781B02C91898
:100B300001809178D2781202891841800020704794
:100B4000F8B50646007B0D460406240E26D0B26892
:100B50001778380620D50C2C20D90C3CE4B210199B
:100B6000009001217088234601F066FC002811D016
:100B7000022028707806C00F6870B806800EA87032
:100B8000641E2004000CA88001D0B068401CA8603E
:100B90000020F8BD0120ECE70020EAE70120F8BDC5
:100BA00010B502981146042B14D34C780A7824020D
:100BB00012190280CC788A782402121942801B1FF5
:100BC000DAB20271F22A05D8401D091DFFF730FA8A
:100BD000002010BD042010BD0098042B01D004207B
:100BE0007047537811781B02C91801809178D27828
:100BF0001202891841800020704710B502981146F2
:100C0000062B03D0142B03D0042010BD022200E0D9
:100C1000102202714B780A781B02D2180280CB781E
:100C20008A781B02D21842800279401D091DFFF705
:100C3000FFF9002010BD000030B5039CD80718D183
:100C4000D805010E022914D30B488088814210D8A0
:100C5000F6200155002008E0557813782D025B1925
:100C60004500401C6353C0B2921C8842F4D300205C
:100C700030BD042030BD00006C4AFF1F0098022BDD
:100C800001D004207047117852781202891801802F
:100C90000020704770B5144602460498022B18D302
:100CA000667825783602AD1905800546E035EA7587
:100CB0002976002A0BD0E8219B1EDAB282708A4284
:100CC00007D8A11CC01CFFF7B3F9002070BDF421A8
:100CD000F2E7042070BD000010B50B461722024950
:100CE00001F036FF10BD0000B708021110B50B4629
:100CF0000D22024901F02CFF10BD0000DF08021197
:100D000010B50A78002A05D00B461122024901F0DD
:100D10001FFF10BD022010BDEF08021110B50A78A8
:100D2000002A05D00B460922024901F011FF10BD2F
:100D3000022010BD0909021110B50B460F2202490D
:100D400001F006FF10BD00002309021110B50B468B
:100D50000B22024901F0FCFE10BD00003309021114
:100D6000F72800D9F720084A01461080401EC31713
:100D70009B0F18188003000C5080491EC80F4018A4
:100D8000C003000C908070476C4AFF1F034A128812
:100D9000914202D8024A4000115270476C4AFF1F2C
:100DA0003473FF1F10B500231322194601F0D0FE43
:100DB00010BD000070B50C460146032000020A1A5F
:100DC000002534481300FFF745F91D1012151C1FAC
:100DD0002326282C303234383A3C3E4042444648A0
:100DE0004A4E50525A5456585A00C07911E01022B7
:100DF000294902E02849102210312046FFF718F94E
:100E000045E0C06A206042E0224906223C31F4E716
:100E1000007820703BE0808936E01E4942784231FC
:100E2000EBE71D4982781F39E7E7007AF1E7407A5E
:100E3000EFE7184906223031DFE7807AE9E7C07A28
:100E4000E7E7C08920E0808A1EE0C0781CE0C08A05
:100E50001AE0008B18E0408B16E0808B14E00D49FF
:100E600006223631C9E7C08B0EE0008C0CE0408CC6
:100E70000AE08079CDE7008A06E0408A04E027296D
:100E800004D2084600F052FA208000E002252846ED
:100E900070BD0000F846FF1F7562FF1F70B50E4C55
:100EA00000256071A571691EE18100F06FFB0420CF
:100EB000E071102200210948FFF7D2F807481022FC
:100EC00000211030FFF7CCF8E56225726572012031
:100ED000A072E57270BD0000F846FF1F7562FF1F2B
:100EE000FEB53B4D0C4608040CD56879FFF7BEF8FB
:100EF000050004D002F0A4FC2846FFF7BDF801204D
:100F0000C00360E0600403D5012080034840FEBDBB
:100F10002F48E1070126807900292AD02978002965
:100F200020D0052821D0297A68460170697A41705D
:100F3000274906223031801CFFF77AF8A97A6846E3
:100F40000172E97A41726946687900F00BFA00286B
:100F500008D00720A871696A002903D00968002910
:100F600000D0884720467040FEBD032069460870C7
:100F7000E4E7A1070DD5052809D1E889FFF782F834
:100F8000AA8A002A03D002216879FFF781F802209B
:100F900019E0600704D5002002F0AAFC042012E04A
:100FA000200712D52879012802D002280AD107E0AB
:100FB0000096AB8B6A8B298BE88A00F00BF801E076
:100FC00000F05AF908206040FEBD0020FEBD000080
:100FD000F846FF1FF8B5134C069EA579052D01D0E4
:100FE0001420F8BD104F851FBD4219D2062917D312
:100FF000BD1DA94214D2FF27F537BA4210D20A2BE1
:101000000ED3AB420CD2E08221836283A3833046AD
:1010100002F06EFC04216079FFF740F80020F8BD73
:101020001820F8BDF846FF1F7A0C0000F7B50D46F2
:1010300080490098164642187F4F00247879B97984
:101040001300FFF707F8190E141BE92040455970EB
:10105000777E888FE996A2A9B4BFC8E9E9E9E9D308
:10106000E900102D76D11022314674486FE0102D22
:1010700070D1724810223146103068E0042D69D1D9
:101080003068F862CEE0012D64D13B7832783A7056
:10109000002B0AD0002A07D1022903D0062901D04B
:1010A000042901D100F018F9BCE0002A0AD0012976
:1010B00005D0032903D0052901D0042902D101213B
:1010C000FEF7F2FFAEE0022D44D13088B881A9E0EE
:1010D0001F2D3FD858481F2200214230FEF7C0FF85
:1010E00055482A4631464230FEF7A2FF524B7D70EA
:1010F00042332A46012112E01F2D7CD84F481F227F
:1011000000211F38FEF7ACFF4C482A4631461F38F5
:10111000FEF78EFF494B2A461F3BBD7000217879B0
:1011200000F0AAFA83E0012D65D13078042862D856
:10113000387277E0012D5ED1307803285BD8787261
:1011400070E0062D57D13C48062231463030FEF77C
:101150006FFF67E04FE0012D4DD1307807284AD866
:10116000B8725FE0012D46D13078032843D8F87279
:1011700058E0022D3FD13288BA82002A52D0052988
:1011800050D10221FEF784FF4CE0012D33D130789D
:10119000012830D8F87045E03088022D2BD1062880
:1011A00029D31921C901884225D8F8823AE030882C
:1011B000022D20D106281ED31921C90188421AD830
:1011C00038832FE03088022D15D1FF21F531884278
:1011D00011D2788326E03088022D0CD10A280AD358
:1011E0001921C901884206D8B8831BE03178012D46
:1011F00001D1012901D0182414E00821FEF75AFF7B
:10120000002801D016240DE0002002F071FB04211B
:101210007879FEF743FF05E00098272801D2022DD8
:1012200002D002242046FEBD318800F0D5F90446E4
:10123000F8E70000FFFCFFFFF846FF1F7562FF1F85
:101240001CB50B4CA179002901D011201CBD002830
:1012500000D06062064907482C3103460191009096
:10126000103B0022E179607900F016F800201CBDE7
:10127000F846FF1F8562FF1F10B5064881790529D2
:1012800001D0122010BDC1891322407900F0B4F9B9
:1012900010BD0000F846FF1FF8B51D460224069F4A
:1012A000079E0B00FEF7D6FE0D150815150815153F
:1012B000151515151508150000F0B8F8040008D12B
:1012C00032463946284600F067F900F0CBF801F0C5
:1012D000A3F82046F8BD000070B5104C2168002925
:1012E00004D00978814203D0032070BD122070BD64
:1012F0000B4D02212878FEF7D1FE0A4800264680D1
:1013000004212878FEF7CAFE0748068021680320DA
:1013100048700020FEF7D4FE70BD0000384BFF1F60
:10132000FD4AFF1FE04AFF1F7A4AFF1F272803D20A
:1013300002494000085A704701487047824AFF1F1F
:10134000FFFF000010B5064C607004F0B3FB60783E
:10135000FEF7BCFE0521607800F04EFF10BD0000D6
:10136000FC4AFF1F70B5284E054630680C46002821
:1013700001D0112070BD254801780520014216D00A
:1013800023488068002805D00078002802D0C807CC
:1013900006D101E0102070BD00F044F8002808D00C
:1013A0002078032805D0022803D0002801D012207D
:1013B00070BD0C20FEF790FE3060002820D0057034
:1013C000002141700A222146801CFEF731FE02F006
:1013D00073FB040002D001F07FFD12E00D4800789D
:1013E00003280ED11D20FFF7A1FF0B49002808801C
:1013F00007D00B48094A04210078FEF773FE00E08D
:101400001324204670BD0000384BFF1F774AFF1F92
:10141000E04AFF1F784AFF1F7A4AFF1F60EA000078
:10142000FD4AFF1F10B504F063FB10BD70B50C46FC
:1014300005461C2200210948FEF712FE08480570E7
:101440004470FEF755FE0549002803D000200870BF
:10145000122070BD01220A7070BD00004473FF1F8E
:10146000764AFF1F70B50F4C0025A068002802D0F7
:10147000FEF744FEA560E068002802D0FEF73EFEBD
:10148000E560094805210078084206D0054810307B
:1014900002F0DCF801F0C2FC70BD002002F0D6F8CA
:1014A000002070BDE04AFF1F774AFF1FFEB5344D94
:1014B0000C46080419D56878FEF7D8FD0121C90348
:1014C0004C40064600280ED001F0E0FF002807D16E
:1014D0002878FF2804D03146FEF716FE002802D0F7
:1014E0003046FEF7C9FD2046FEBDE0070127002873
:1014F0000AD0A868002804D04168002901D0002043
:10150000884720467840FEBDA00709D568680028B6
:1015100004D04168002901D00120884702202AE038
:1015200060072AD5174E308800281FD0401E0004BF
:10153000000C30801ED101F03FFD002809D0124878
:1015400007706868002804D04168002901D0012094
:10155000884701F00BFD694600F0ACFE684601F0DB
:101560007FFF1D20FFF7E2FE308003E00421687852
:10157000FEF794FD04206040FEBD0020FEBD00008B
:10158000FC4AFF1F7A4AFF1F794AFF1F0149087072
:1015900070470000FC4AFF1F70B50E4C0B46261D1D
:1015A00007C60546102200211846FEF7B3FD0128A4
:1015B00003D11021A06805F089FB102200212846E4
:1015C000FEF7A8FD012803D11021606805F07EFB1D
:1015D00070BD00004473FF1F272807D2044A9142C0
:1015E00004D0044A40001152002070470220704786
:1015F000FFFF0000824AFF1FF8B50D4617461D4940
:1016000006461B4A1224C868954208D100282DD0EE
:101610000268002A2AD029463046904723E0144A1F
:10162000521C954213D1002807D00268002A04D02A
:10163000294630469047040005D03946304601F02F
:10164000C7FB040012D10B48067047700EE0284615
:1016500004F000FA002809D00078B04205D13946DC
:101660002846FEF75DFD044600E003242046F8BD51
:10167000FEFF0000D04AFF1FF8B50E46014619488C
:101680001546007805221F46104028D0304326D04A
:101690001548012E1BD0C468002C20D01F2D18D84F
:1016A000002D01D0002F14D001701F220021601CDA
:1016B000FEF7D6FC2A463946601CFEF7B9FC2846E0
:1016C0002570002E07D0611CFEF730FDF8BD846840
:1016D000E2E70220F8BD611CFEF72EFDF8BD1220E6
:1016E000F8BD0000774AFF1FE04AFF1F014610B512
:1016F0000020C90704D0034A0421034800F00CFA73
:1017000010BD0000CC8002116847FF1F10B50023F8
:1017100009E01C012418E468944202D11901081858
:1017200010BD5B1C9BB28B42F3D3002010BD0000A8
:1017300070B50E4D0F4CA8700D49204600F020F8F2
:1017400000210D480B46CA0084521218491CC9B228
:1017500053600829F7D3012003F090F8A87800F02F
:10176000A3FB064804F0D6F970BD00005C47FF1FDC
:10177000886CFF1FFFFF00009862FF1FB14002113D
:1017800070B50A4C0025A04209D1002082008C527D
:101790005218401CC0B295700928F7D370BD02F0F2
:1017A00056FC0028FAD00480857070BDFFFF000051
:1017B000F8B50E460746069900240798002902D07E
:1017C0000B242046F8BD022B01D00D24F9E7117837
:1017D0005278120289188DB22946814301D08024A3
:1017E000EFE73846F16800F08FF9A842E9D02A46C1
:1017F0003846F16800F0FAF90400E2D171892A460E
:10180000384600F0B7F9DCE7FFB506460020C3B064
:10181000244F05460490A80084192088B8423AD085
:10182000A078002837D0449A4C994698FFF76EFF6D
:10183000039000282FD020881B494200895C05AA0C
:10184000C91EC9B200230232019300920291469947
:1018500005AB4A890333039900F044F800281AD1F4
:101860000398694640898882A078C00707D02088FD
:1018700005A9459A00F0E6FA049908430490A07877
:10188000800708D5208805A94D9B459A00F07EFA6F
:101890000499084304906D1CEDB2092DBBD3049844
:1018A00047B0F0BDFFFF00003473FF1F70B50C465A
:1018B000080412D50A488078FEF7D8FB050008D046
:1018C0002878B02802D1284602F0E0FC2846FEF72E
:1018D000D3FB0120C003604070BD002070BD00003C
:1018E0005C47FF1FFFB587B0087A0025109E1C4695
:1018F0000F46C0060DD5099802F0A2FB030006D0E2
:101900000A22394607989847050035D101E00E258F
:1019100032E0387802281DD1786829220178407891
:1019200012020002081880B2811A90427ED009DCAF
:101930007249401A23D0012821D0022851D003280F
:1019400008D125E0012972D0022971D003296DD078
:1019500004296ED0099802F09BFB0028D7D00568B7
:10196000002DD4D01299119801910090334622464F
:1019700039460798A847054628460BB0F0BD119890
:10198000002873D1F868017831700278416897E0D7
:10199000119800286AD101203070F8680021007881
:1019A00020707889401C80B200F04EF900280FD0DA
:1019B000317802788918891C3170817A6170418987
:1019C000090AA17002784168E01CFEF731FBD3E7F9
:1019D00030780422001D30700021601CFEF740FBAF
:1019E000CAE71198002872D1F86804A9008800900D
:1019F00004203070009820700098000A60700098F1
:101A000000F022F9070028D0F86805906846028A9D
:101A100003AB3B49384600F06FF900280FD13B7803
:101A2000022138487A68FEF78CFF03E027E031E0B6
:101A30001DE049E0002802D13148694688810598B7
:101A4000007802280CD1059802224168201DFEF77B
:101A5000EFFA3078801C307002E069460098888187
:101A600068468089A070000AE07085E72FE0119831
:101A700000282CD1F968079800F046F804E0119886
:101A8000002824D1F8680088022131702070000AF3
:101A9000607071E7F868FEF755FB1199C0B281429A
:101AA00010D8814201D1002206E0129A89188142A1
:101AB00002D31199401AC2B23270F968119809180C
:101AC000204682E7072557E71198002801D00B250B
:101AD00052E70721F8683170017821704178617010
:101AE0008178A1704188090AE170017921718179B9
:101AF0006171C088000AA0713EE700000028000064
:101B0000FFFF0000BA81021110B502F0A0FA002810
:101B100000D0807810BD00007CB51446050019D0B7
:101B200068460195018000F0C5F903001DD1002C25
:101B30001BD06D89002D0DD00C20FEF7CDFA0028AA
:101B40000AD0002303608580094A84605168002917
:101B500004D006E0022308E0132306E0506004E00E
:101B600011460A68002AFBD1086018467CBD0000B7
:101B70005C47FF1FF8B50C4C0746207815460E460B
:101B8000FF280FD00A20FEF7E3FA01000AD0B120A7
:101B900008700020487008714F80CE800D81207839
:101BA000FEF7B2FAF8BD00005C47FF1FFFB583B037
:101BB00008461E4601A90C9F00F046F8050012D009
:101BC0006846808802F064FA00280AD04468002C35
:101BD00007D00097F3B22946059A0398A04707B0AB
:101BE000F0BD0E20FBE70120F9E7000070B51446B8
:101BF0000E46054602F02BFA002806D1314605486C
:101C000002F025FA002803D005808470002070BD02
:101C1000112070BDFFFF000010B50178B0290BD175
:101C20004178002908D10179122906D01B2903D156
:101C30004088012100F068FA10BDFF210131095CE4
:101C40000129F5D010BD0000F0B58C4610494B6855
:101C500019E09F687C89A04214D39E883119814283
:101C600010D900220CE011017D186989814205D14B
:101C70006046002800D004802846F0BD521C92B275
:101C80009642F0D81B68002BE3D10020F0BD000085
:101C9000084BFF1FFFB5174881B00A9F446824E036
:101CA00000251EE0A0682901461870890199884224
:101CB00015D30299884212D80498002807D03178A9
:101CC0007068049B039AFEF73CFE002807D0002FA3
:101CD00002D0A06840893880304605B0F0BD6D1C48
:101CE000ADB2A088A842DDD82468002CD8D100204D
:101CF000F3E70000084BFF1FFEB5174600256A46B4
:101D00009580044640891D4A1E46904208D001AA8B
:101D10000092401C237880B26268FFF7BBFF054643
:101D20002378022116486268FEF70BFE002807D1CF
:101D30002378022113486268FEF703FE002801D0D1
:101D400060890EE0237802210F486268FEF7F9FDF2
:101D500000280DD0002D03D068468088B84203D0FB
:101D6000384602F09DFE04E06889401E80B200E023
:101D70006089002E00D030802846FEBDFFFF0000A5
:101D8000B8810211BA810211BE810211FFB581B082
:101D90000F461E4614466946019801F09FFF050054
:101DA00018D1002C06D001221021019803F02CFE3E
:101DB00005000FD139460198FEF758FE050009D1FC
:101DC000009CFF2E06D021461E22A31C034802F0D1
:101DD00073FEE670284605B0F0BD0000A54902116B
:101DE00010B505490870042100F006FA00F006F865
:101DF000FEF750FE10BD0000104BFF1F70B50E4CDB
:101E000000200C4B651CFF228100C91800280ED051
:101E10000D80401CCA70C0B28A700928F4D30748EC
:101E200002F000F9064803F075FE002070BD0C803A
:101E3000EFE700006073FF1FFEFF0000D1490211B1
:101E400025490211F8B50D4614460646694601F0CB
:101E500045FF17280CD0002C06D001221021304657
:101E600003F0D2FD002803D129463046FEF708FED4
:101E7000F8BD000070B50C46080411D5094800787B
:101E8000FEF7F4F8050007D00178A02901D102F08F
:101E90006DF82846FEF7F0F80120C003604070BDE1
:101EA000002070BD104BFF1F0149087070470000F3
:101EB000084BFF1F70B50546008800281DD06868D4
:101EC0000221037842682248FEF73BFD002808D132
:101ED00068680221037842681E48FEF732FD002838
:101EE0000BD01D4C6088002805D0012229881204DF
:101EF000101A814203D9012070BD022070BD0C2050
:101F0000FEF7EAF8060001D000200AE0132070BDB9
:101F100002016B6861880A329952491C401C618039
:101F200080B229888142F3D80020306008222946F7
:101F3000301DFEF77DF86068002802D1666004E07D
:101F4000084601680029FBD10660002070BD000032
:101F5000B8810211BA810211084BFF1F0649496876
:101F600006E08A685289824201D1888870470968F0
:101F70000029F6D100207047084BFF1F10B514222E
:101F8000114201D0012202E04A0604D500221021AC
:101F900003F03AFD10BDC80701D0002010BD02209B
:101FA00010BD10B514468A0604D50122102103F095
:101FB0002BFD10BD882211420ED008220A401021AC
:101FC00003F022FD00280BD0E034217E0029F0D060
:101FD000E17D0129EDD103E0880701D4032010BD84
:101FE000002010BD014610B50020C90704D0034AE7
:101FF00007210348FFF790FD10BD0000B8800211D3
:102000008446FF1F70B50D46164600241D49030087
:10201000FEF720F808051234341934222934152D1E
:1020200023D8162200211848FEF71AF82A4631460E
:102030001548FDF7FDFF22E0022D16D11149108849
:10204000103908801BE0082D0FD10E4808223146B8
:102050000838FEF783F812E0012D06D1CA69094954
:102060003078283107E0012D01D0182407E0CA6B31
:1020700004493078483102F0E0FD00E002242046B7
:1020800070BD00008446FF1F4062FF1F0B78037085
:102090000B8802221B0A43700B88801C012B02D084
:1020A000022B07D011E08A7802704988090A417032
:1020B00004220AE08A7802704A88120A42700A7979
:1020C00082708988090AC170062210467047000094
:1020D00008B5044B009313460A46012103F000FBA8
:1020E00008BD00008D2002111CB50323019200934E
:1020F0000A46024B122103F023FB1CBD05500211BE
:1021000010B5FEF731F810BD13B50448007801286A
:1021100003D101AA6946FEF72DF81CBD1C4BFF1F19
:1021200070B50F490F4A087000210B468C00491CFE
:10213000C9B213530429F9D30A4C00211034FF26E5
:102140000A460A256A4315196B80491CA354C9B273
:102150006E720329F4D3FEF713F803F08FFA70BD03
:102160001D4BFF1F8473FF1F082A01D001207047F9
:102170004B780A781B02D2180280CB788A781B022F
:10218000D21842804B790A791B02D21882808A7950
:10219000C97909025118C1800020704770B50C46FA
:1021A000080411D509480078FDF760FF050007D045
:1021B0000178902901D103F0C3F92846FDF75CFFAF
:1021C0000120C003604070BD002070BD1D4BFF1F8B
:1021D00070B508280CD201010648002444520D189D
:1021E000AC81AC80A868002802D0FDF7CFFFAC60BE
:1021F00070BD00002475FF1F072907D0052905D0F1
:10220000042903D0062901D002207047044A8B001C
:102210009A181346403B1986203A90740020704764
:102220008473FF1F70B508281BD25C2148430D49F9
:1022300000244618354640352C746C742C76706D2D
:10224000002802D0FDF7A2FF74650024E0003018DA
:102250004068002801D0FDF799FF641CE4B20A2C05
:10226000F4D370BDA475FF1F70B50A880C460546EF
:10227000072A07D0052A05D0042A03D0062A01D050
:10228000022070BD012103F073FC002804D0214618
:10229000284602F0CDFE70BD142070BD10B5001DA3
:1022A00080B2FDF779FF002803D00321C943FDF771
:1022B00079FF10BD38B50C46050014D0002C12D0A3
:1022C0000321684604F002FD6946887840218006B3
:1022D000800E0843694688702246284605F0E3F9D7
:1022E000050002D006E0022038BD03226946E01C4A
:1022F000FDF79EFE284638BDF7B58EB00E98154600
:102300000E4600282DD0002D2BD0301DC0B20190DC
:10231000FDF7E2FE040039D000F034FE07463246F5
:10232000201D0E99FDF744FFF8B20890E0703804C4
:10233000000E0B90A0703802000E0A9060703F0EE5
:10234000277000F019FE0146102202A8FDF730FFA9
:1023500006AB214602A8019A05F0FBF8060003D05F
:1023600010E0022011B0F0BD089828700B9868703A
:102370000A98A870EF70082206A9281DFDF718FF1B
:1023800000F006FE2046FDF7B9FE00E013263046B9
:10239000E8E7000010B5064C2070FDF70FFF06219E
:1023A0002078FFF729FF034803F0B4FB10BD0000BD
:1023B0002C4BFF1F216D021170B50C46080418D577
:1023C00013480078FDF752FE05000FD004F0C0FD61
:1023D000002808D10F480078FF2804D02946FDF7CF
:1023E00093FE002802D02846FDF746FE0120C003D8
:1023F0000AE0E00703D005F091F8012004E0A0070F
:1024000004D504F09DFC0220604070BD002070BD2A
:102410002C4BFF1FFC4AFF1F10B5054800784007F2
:1024200001D5044800E0002004F01AFE002010BD91
:10243000774AFF1F204BFF1FFFB58DB00F98169CEA
:102440000E46002815D0002C13D00D9803F002FB87
:10245000050011D06178207809024018A178E2784F
:102460000904120689184718286AB84206D3401C86
:1024700004D0022011B0F0BD1420FBE7002E04D0E0
:102480002879800701D40120F4E70822002106A85A
:10249000FDF7E6FD1098001DC0B20190FDF71CFE8F
:1024A000060017D0301D109A0F99FDF781FE042207
:1024B00021463046FDF77CFE1022A91802A8FDF740
:1024C00077FE06AB314602A8019A05F042F80500F6
:1024D00002D013E01320CDE7082206A908A8FDF7D3
:1024E00067FE0822211D08A8FDF7AEFD012801D0D6
:1024F000012503E039460D9801F038FB3046FDF721
:10250000FDFD2846B6E7000030B5754CC7B0A07297
:1025100006211F20FFF760F800206946087201229B
:102520000A7307220A748882182219258A836D018A
:102530000D848884FF20F53008856AA003C80191C6
:10254000009020786946087606AA01216748FEF7C0
:102550006DFD66486A460621801CFEF767FDC320B4
:1025600004AA01218000FEF761FD604802AA012152
:10257000001FFEF75BFD5D4805AA0221C01EFEF7A5
:1025800055FD21465A31084612223838FDF750FDD4
:102590002246612020321C21C000FEF747FD53482F
:1025A00022463C321E21801EFEF740FD312003AA48
:1025B00001210001FEF73AFD4C4807AA022108302C
:1025C000FEF734FD494808AA02210930FEF72EFD26
:1025D000464809AA02210A30FEF728FDC5200AAAAA
:1025E00002218000FEF722FD22465A3215210020EA
:1025F000FFF708FD29460620FEF7EEFF29460720D3
:10260000FEF7EAFF29460820FEF7E6FF29460920E3
:10261000FEF7E2FF0025ED432846FFF7E3FC2846DE
:10262000FFF764F803F042FD284600F0EBF930A212
:102630000FCA6D460FC53248694608823148888204
:102640000F200876002007A901E0062801D2002209
:1026500000E002460A54401CC0B2FB28F5D36A468B
:102660001021002000F028FA04AA0221012000F025
:1026700023FA022105AA084600F01EFA06AA012143
:10268000032000F019FA07AAFB21042000F014FA35
:102690001D4900200854401CFF28FBDB1048143063
:1026A00000F000FAF7250120FDF78EFD0120FDF76F
:1026B00091FD2846FEF754FB294614A000F070FB5C
:1026C0000121A07AFDF7F0FCA07AFEF75FFF164823
:1026D000FDF786FD154800F063FB47B030BD0000F4
:1026E000E849FF1F0102030405060000090300007A
:1026F000FDA50693A4E24FB1AFCFC6EB07647825E2
:1027000074270000ED6B0000F471FF1F5B324D6217
:102710007073207C20444C45207C204D545520254E
:10272000645D200A000000003870FF1F588202110B
:10273000F0B5834D0C46A87A85B0090413D5FDF792
:1027400095FC05000CD02878912806D168780E28D1
:1027500003D1A9887BA000F023FB2846FDF78CFC61
:102760000120C003E7E0E1070126002909D07448F1
:102770001830FEF765FDFDF739FD2046704005B0C5
:10278000F0BDA10701D50220D5E0210708D5684694
:1027900006706A4601217648FEF748FC0820CAE028
:1027A00061070026002959DA002742E0E8897149CB
:1027B000020A0A704870002F23D16D4803A9113016
:1027C000FEF7F8FA6A4804A91230FEF7F3FA6946F0
:1027D0000020FDF711FD01A90020FDF713FD02A95E
:1027E0000020FDF715FD6946624809784174694685
:1027F0008988FF39FF390239891081746946097A5D
:10280000C1740020FEF72CF9C01EC1B2594A052040
:1028100004F06CF8EA890028014603D056A000F0C5
:10282000BFFA09E05AA000F0BBFAE889401CE88131
:102830007F1CA8788742B9DBAA89002A07D0E878EC
:10284000002809D10421A87AFDF722FC04E0042124
:10285000A87AFDF723FCEE8104206CE0E10660D548
:10286000298A002956D00020FDF7D8FC0290404864
:1028700069461130FEF79EFA684600888100081804
:102880008003020C68460280062042432021A87A79
:10289000FDF7FEFB364801A91230FEF78BFA6846B9
:1028A0008188688AFDF7C0FC684600884143288A11
:1028B0000F183A461021A87AFDF7EAFB3A4639A0EC
:1028C000029900F06DFA002719E02A48FF210670EE
:1028D0004170698A0A0A8270C1700020FEF7C0F850
:1028E000C01EC1B2234A052004F000F86A8A0028FD
:1028F000014608D032A000F053FA7F1CFFB22879BD
:102900008742E2D30BE034A000F04AFA688A401C08
:102910006882F2E71021FDF7C1FB6E822E71102054
:1029200009E0A00609D50020FDF784FC014630A08F
:1029300000F036FA2020604021E700201FE7000069
:10294000E849FF1F3D3D3E204843495F434F4D4D01
:10295000414E445F434F4D504C4554455F455645AD
:102960004E545F434F44453A2025780A000000004A
:1029700005030000F471FF1F5B4E4F54465F54582F
:10298000204552525D2025303278202534780A00C7
:102990005B4E4F54465F54585D20253032782025D9
:1029A00034780A005B4449534C41545D20737420D1
:1029B00030782530327820696E74762025640A00DC
:1029C0005B4449534C41545F54585D202530327864
:1029D0002534780A000000005B4449534C41545FA1
:1029E00054585D2025303278202534780A000000C4
:1029F0005B454E5F4C41545D203078253032780A7B
:102A00000000000070B50546002408490848FEF79C
:102A1000B7FE084803F07EF8E80705D0064A1821FB
:102A20000648FFF779F80446204670BDFA6EFF1F8E
:102A3000FFFF0000BD680211348102112448FF1F0E
:102A400070B50C460146002513480B00FDF702FB4C
:102A50000705080A0D10201A200010220F490DE06A
:102A6000408800E08088208013E00078207010E02B
:102A70000020FDF7F5FF0949C21E34312046FDF75D
:102A8000D7FA06E00020FDF7EBFFC21E0449F5E788
:102A90000225284670BD00001848FF1FD06CFF1F9C
:102AA0001E6FFF1F002803D0024988600020704776
:102AB000112070471848FF1F70B5154602460024C4
:102AC0001C481300FDF7C6FA07050B141D22332915
:102AD0003300102929D80A462946174822E002293E
:102AE00023D169782A780902114349BA41801FE04D
:102AF00002291AD169782A780902114349BA8180DA
:102B000016E0012911D12978017011E0FB290CD8B8
:102B100009480A462946343004E0FB2905D80A460C
:102B200029460648FDF784FA02E0182400E0022452
:102B3000204670BD1848FF1FD06CFF1F1E6FFF1F7F
:102B40000A4610B501460020FDF77AFB10BD0000D3
:102B5000FFB583B00F4603981B4940001646085A3C
:102B6000FFF79CFB04002AD00125601C2670002F73
:102B700003D00699B847401C85B2300610D5102105
:102B8000039802F0F5FF002801D0192613E062191E
:102B9000E9B22046FFF7B0FB06000CD10C35ADB210
:102BA0000421684601800194058169460398FFF776
:102BB0005BFB060004D02046FDF7E8FA00E0132690
:102BC000304607B0F0BD00003473FF1F10B586B06B
:102BD000044614220FA16846FDF738FB1249302045
:102BE0000870782048700620891C6A46A41D641E5F
:102BF0002378401E1B09D35C0B70237800061B074B
:102C00001B0FD35C4B70891C000EF0D10870064876
:102C100006B010BD303132333435363738394142A1
:102C200043444546000000002870FF1FF0B5002017
:102C30008BB009900746064605460890079025A0E8
:102C400000F0AEF828A000F0ABF8002404A920465C
:102C5000FDF702FB6846838AC28A018B408A039390
:102C60006B4607C36846038A428B21462AA000F0C0
:102C700097F86846418B0798641C081880B2079043
:102C80006846018A0998E4B2081880B2099068463B
:102C9000418A0898081880B208906846008B40194D
:102CA00085B26846C08A801986B26846808AC01993
:102CB00087B2252CCAD323A000F072F86846E0C082
:102CC0002CA0089B099A079900F06AF8FDF7CAFA48
:102CD0000BB0F0BD5B504552205354415453204E2D
:102CE0006F746966795D0D002D2D2D2D2D20636883
:102CF00020636F6E6E4E2072784E756D2072784331
:102D00007263207278546F4E20747841636B207424
:102D100078527479200D00005B5045525D202530BB
:102D20003264202530356420253035642025303547
:102D30006420253035642025303564202530356405
:102D40000A000000544F54414C20636820636F6EAA
:102D50006E4E2072784E756D2072784372632072C9
:102D600078546F4E20747841636B20747852747974
:102D7000200D00000A5B5045525D202D2D2025308E
:102D800035642025303564202530356420253035E4
:102D900064202530356420253035640A00000000A9
:102DA0000FB410B503AA0448029902F031FF10BC19
:102DB00008BC04B018470000412B021138B5034B82
:102DC00000240FCB0094FDF753FA38BDA080021108
:102DD00010B50C4602F052FE002804D0408821466F
:102DE000FDF79EF910BD122010BD0022002913D05E
:102DF000002811D0012806D04A799206920E4A7115
:102E0000032805D007E04879C0221043487102E04A
:102E1000402002434A7101221046704770B51248A3
:102E200000250078052108421BD02020FDF754F929
:102E30000E4C0028A06013D020220021FDF710F9CD
:102E40002020FDF749F9E060002804D0202200216D
:102E5000FDF706F905E0A068FDF750F90020A06035
:102E60001325284670BD0000774AFF1FE04AFF1F68
:102E7000002909D0012807D1497989098901C02988
:102E800002D0402901D00220704703207047FFB5CF
:102E900000200E4608701AE01C5C401CC5B2002CD5
:102EA00017D02819904214D85F5D6D1CEDB23846DA
:102EB00000F085FE002806D0641EE0B23070009954
:102EC0008F4202D1581904B0F0BD4019C0B29042EF
:102ED000E2D30020F7E7000010B5044C206800287A
:102EE00003D0FDF70BF90020206010BD384BFF1F09
:102EF00010B50D4CA068002815D0006A002801D03C
:102F0000FDF7FCF8A068406A002801D0FDF7F6F84C
:102F1000A068806A002801D0FDF7F0F8A068FDF7EE
:102F2000EDF80020A06010BDD04AFF1F10B5044C82
:102F30006068002803D0FDF7E1F80020606010BD54
:102F4000D04AFF1F0100044805D1044989780029AF
:102F500001D00248801D70475473FF1F764AFF1F3F
:102F60000148807870470000764AFF1F014840689A
:102F7000704700004473FF1F0148806870470000DD
:102F80004473FF1F0148C068006870474473FF1F07
:102F900010B50748C0680168491C01600548007801
:102FA000FF2803D001218903FDF77EF810BD000042
:102FB0004473FF1F764AFF1F02484068002800D074
:102FC00001207047344BFF1FFFB581B00B9F0D9E52
:102FD0000A9D039802F03EFD040042D001980028AB
:102FE0003FD120791021084320710499490702D567
:102FF0000221084301E0FD210840207128460C9978
:10300000384308433043207902D00421084301E0CB
:10301000FB2108402071002E06D03069102220626A
:103020003146A018FDF704F8002D02D002980028C0
:1030300005D0002F15D00298012808D011E0606A51
:10304000002801D0FDF75AF81C21284606E0606AE6
:10305000002801D0FDF752F81C213846FDF70EF983
:103060006062224CA06800283ED0002D0FD0006A7C
:10307000002806D11C20FDF72FF8A168002808625F
:1030800005D0A0681C22006A2946FCF7D1FF0C98E5
:10309000002810D0A068406A002806D11620FDF74D
:1030A0001BF8A1680028486205D0A0681622406A73
:1030B0000C99FCF7BDFF002E10D0A068806A002894
:1030C00006D11420FDF708F8A1680028886205D011
:1030D000A0681422806A3146FCF7AAFF3B46049A96
:1030E0000399019803F040F905B0F0BDD04AFF1FE5
:1030F000F3B581B0019802F0ADFC050029D00E2097
:10310000FDF726F8040024D02620FEF70FF906006C
:1031100000D12E78D0202070002767700B20A0707F
:103120000622A91DE01CFCF783FF0198608102982C
:10313000C1070120002901D0207300E02773029904
:10314000890701D5607300E06773F0B22146FCF790
:10315000DBFFFEBD10B581881F4B0124CA1A9942BE
:1031600037D011DC1D4BCA1A994219D007DC1C4A12
:103170008A1810D0022A1ED0032A29D11BE0472A20
:1031800027D0482A24D124E01300FCF763FF06214E
:103190002222222222218068007800F0D1FC08E05F
:1031A0008068827841781202891889B2007800F02C
:1031B00027FD04460DE0094A921E914201D10122E9
:1031C00000E0002280680178104600F001FD00E078
:1031D0000024204610BD0000532000000A200000FB
:1031E000FADFFFFF70B51A4D1A4A0146002628780B
:1031F0001268194C01290CD0002A09D01749097806
:10320000490705D50221FCF749FF6680FFF764FEF8
:1032100070BD6188002903D0114B1B78002B05D0AD
:10322000002AF5D01078FEF757F870BD3C2902D37C
:103230003C39618070BD0221FCF730FF62887D203F
:10324000C000424302212878FCF722FF668070BD4F
:10325000FD4AFF1F384BFF1FE04AFF1F774AFF1F41
:10326000794AFF1F08B5418900910389C288818886
:10327000C07800F0B1FB08BDF0B587B0040053D0B2
:103280002A4D6868002823D006782948006800285D
:1032900004D04168002901D0002088472146E07908
:1032A00008310591FFF7E4FDE0710246277D638A4E
:1032B000218AE089019002A88AC0A0880090E07865
:1032C0003146059B03F0BCF8E078002802D00CE002
:1032D0001848D9E7E189059800900191E379A18820
:1032E0000122304602F066FBE0706868002811D0C9
:1032F000FFF71CFE287800280CD06978FFF768FDDE
:10330000002807D0E078A2880346297803F0C5F8A2
:1033100000202870A0881721FDF738FDA088FEF74F
:1033200057FFA088FEF77EFF07B0F0BDD04AFF1F11
:10333000004BFF1F764AFF1F70B5044600258088AA
:1033400002F088FB002803D00578A08802F0F4FB87
:10335000124E3078002808D0854206D17178FFF7E8
:1033600037FD002809D000203070002D05D0A3794A
:10337000A288A078294603F090F8B068002801D010
:10338000FFF7B6FDA0881721FDF700FDA088FEF726
:103390001FFFA088FEF746FF70BD0000D04AFF1F48
:1033A00070B58288294D0124531B2949AA4242D075
:1033B00019DC284D531BAA4218D00BDC264BD2181F
:1033C00026D0254B1033D2181ED0032A17D0042A3A
:1033D00039D10BE0012B09D0022B07D0032B21D0D0
:1033E000042B30D11AE0433B072B2CD84968002925
:1033F0002AD00968002927D08847044624E080683D
:10340000007800F0ADF81FE0806800F001F9F4E703
:103410008068411C007800F0D9F8EEE783681B78DB
:10342000002B11D0896800290ED00B6808E00146F6
:1034300010469847E1E709490968002904D04B681C
:10344000002BF4D100E00024204670BD0E200000C7
:10345000FC4AFF1F08200000F7EFFFFFDC4AFF1FB8
:1034600010B5094CA17800290CD001460622A01DF8
:10347000FCF7DEFDA11DA078FFF7B7FCA01DFCF74F
:1034800003FF10BD002010BD764AFF1F1CB52F4959
:10349000037801240A68912B02D0A22B2ED13EE0A2
:1034A0004178052909D00E2904D00F2908D03E29DA
:1034B00024D115E0FFF774FF10E0FFF73DFF42E075
:1034C00001468088224B0124C31801D0062B15D158
:1034D000002A38D05268002A35D09047044632E09E
:1034E00081780124032917D004DC012911D0022995
:1034F00004D105E0152926D0162924D0002422E085
:103500001449896800291ED0496800291BD08847C2
:1035100019E0FFF7B1FE16E0FFF7A4FE13E00E4935
:103520000978490707D500216A461180017940884A
:10353000FEF7CEFD07E0002A05D05268002A02D02F
:1035400001460648904720461CBD0000DC4AFF1F8C
:10355000F3DFFFFFFC4AFF1F774AFF1FFFFF00005A
:10356000F8B5164F0646BD1F2878FF2814D00A204C
:10357000FCF7EEFD04000FD0D0202070667008200C
:10358000A070A878E07006223946201DFCF750FD97
:1035900021462878FCF7B8FDE87801280DD10848C5
:1035A0000068002803D08068002800D080470648C3
:1035B000044A04210078FCF795FDF8BD7C4AFF1F02
:1035C000004BFF1F60EA0000FD4AFF1F70B500249A
:1035D0000546002805D1002903D006220B48FCF738
:1035E00027FD0A4810380178012907D10124002D50
:1035F00006D000210170284600F0CAF9204670BDAF
:1036000002210170FCF746FEF8E700005473FF1F2B
:1036100010B50024002813D002780B49002A03D1EA
:103620004288CA8202790A760A78022A08D1027888
:103630000124002A06D000220A70007800F0A8F9C0
:10364000204610BD0322F7E74473FF1F014948607D
:1036500070470000FC4AFF1FF8B5774C8778014699
:10366000002507266079A2793B00FCF7F3FC0805EA
:10367000361A37375F94C736487800285CD16E48D1
:1036800006223C30C91CFCF7D3FC0120A0716A4B18
:103690000146423362786079FDF7EEFF00284BD196
:1036A000A2E00F464978002946D1F978002906D0D2
:1036B000624BA2780021FDF7DFFF78700AE0022A52
:1036C0000BD00121FCF7F6FC002803D10121607921
:1036D000FCF7EAFC787800282ED1F8BD497800295B
:1036E0002AD1032F09D0A289002A0CD021780029E1
:1036F0000AD00121FCF7CCFC06E0052A01D002200B
:1037000012E0062010E02570A079062802D00428D7
:1037100002D008E0052007E0012020700146607912
:10372000FCF7C2FC60E00320A0715DE048780F4622
:10373000002803D031282CD0A67155E03E4806223F
:10374000391D3630FCF774FC7889E081B889208215
:10375000F88960820520A071A28A002A03D0022184
:103760006079FCF795FCB889E083F8892084388A71
:103770006084E07801280AD11F20FDF7D7FD7D2164
:10378000C9004843024604216079FCF781FC25709A
:103790002AE02570C7E728480E4606220021363069
:1037A000FCF75EFCE5832584658404216079FCF7E1
:1037B00075FC08216079FCF771FCB079082808D005
:1037C0000320A0712078002805D06079FDF784FDE2
:1037D00007E00420F5E70120207001466079FCF73E
:1037E00063FC0020C043E081606A002800D174E7D8
:1037F00001680029FBD0A0798847F8BD0D46082153
:10380000FCF74CFC687829460028F6D1E888E0836C
:10381000288920844889608404216079FCF74AFC67
:103820000028EAD1A06A0028E7D00368628C218CC6
:10383000E08B9847F8BD0000F846FF1F5662FF1F57
:1038400010B50178224C912906D0A22926D0D02982
:1038500001D1FFF701FF10BD41780E29FBD181880E
:103860001C4A91420FD1816803200856A17905298D
:10387000F1D17F28EFD0616A0029ECD04968002996
:10388000E9D0884710BD144A9142FBD18068837803
:103890004278017811A0FFF783FA10BD417913290E
:1038A000FBD10089012802D12079022808D0052007
:1038B000FDF73CFD024608216079FCF7E9FB10BDED
:1038C00008216079FCF7EAFBFDF7D6FC10BD00008B
:1038D000F846FF1F05140000222000005B48434902
:1038E00020444C455D25642025642025640A0000A1
:1038F0007CB5154C0546E08BE18A88420AD3218BC2
:10390000884207D8208C618B884203D1608CA18BC0
:10391000884217D00520FDF709FD0646E18A684672
:103920000180218B4180618B8180A18BC180627974
:103930006946E089FEF7D8FB257132460821607997
:10394000FCF7A6FB7CBD0000F846FF1FF8B5074654
:103950000E46084602F07EF8040018D02620FDF737
:10396000E5FC050000D125780620FCF7F1FB0400FA
:103970000DD006220021FCF773FBD0202070677069
:103980000E20A070A680E8B22146FCF7BDFBF8BD72
:1039900070B50F4D06462878FF2818D00E20FCF78A
:1039A000D7FB040013D0D020207066700020A070D8
:1039B00006220849E01CFCF73BFB06481038C18A88
:1039C0006181007E207321462878FCF79DFB70BD45
:1039D000764AFF1F5473FF1FFFB581B01E4617467E
:1039E0000D460C20FCF7B4FB040013D0284602F06F
:1039F00031F8002810D00078D02121700199617031
:103A00000721A170A580E78026810A99618121465E
:103A1000FCF77AFB05B0F0BD0048ECE7764AFF1FE3
:103A200070B50D4D044628680E46002812D00620B9
:103A3000FCF78EFB010009D0D02008704C700320E9
:103A400088708E8028680078FCF75EFB002C01D01F
:103A5000FFF742FA70BD0000384BFF1FFFB581B081
:103A60001F460E46084601F0F5FF050022D0102043
:103A7000FCF76EFB04001DD010220021FCF7F0FAC9
:103A80002620FDF753FC002800D12878D021217092
:103A9000019961700F21A170A6800399217267724C
:103AA0000A99A1720B99E1720C99E160C0B22146AA
:103AB000FCF72AFB05B0F0BDF0B51F4D85B02868B6
:103AC000002837D08778FDF7ADFC002805D00A2004
:103AD000FDF72CFC04900B200EE001F061FA0028A9
:103AE00005D00620FDF722FC0490072004E0082002
:103AF000FDF71CFC04900920FDF718FC04460F4854
:103B00000078002814D001262968C878091DFFF71D
:103B10006CF929686D46CA7A8B7A091D0BC5039228
:103B200033463A4621460498FCF7BAFB05B0F0BD8F
:103B30000026E9E70120F9E7384BFF1F784AFF1F0D
:103B400010B50949096800290CD0002805D10120C9
:103B50004870FCF7B5FA002802D00021FFF760FF9B
:103B6000012010BD002010BD384BFF1FF8B50C46DA
:103B700001F070FF020021D026201462FDF7D6FB71
:103B800005062D0E00D115785679901D0090102055
:103B9000176AFCF7DDFA040010D0D0202070002056
:103BA00060700920A070E6700622201D0099FCF7C5
:103BB0003FFA21462846E760FCF7A6FAF8BD411E09
:103BC000152903D9FF2801D0002070470120704734
:103BD00070B50A4E054630780C46FF280DD00420FB
:103BE000FCF7B6FA010008D0D02008704C70022013
:103BF0008870CD703078FCF787FA70BDE04AFF1FFF
:103C0000F3B5284D81B0286800284AD04078264E68
:103C1000012803D03078002831D041E001F0C0F90C
:103C2000224F002813D00120FDF780FB04464128D5
:103C300008D91F4A02213878FCF754FA1D483C3C49
:103C400044800EE07D20C0002246424303E0002075
:103C5000FDF76CFB0246002A03D002213878FCF7FE
:103C600017FA2968022048703078002802D0002016
:103C7000307015E002990198FFF7D2FE10E00320A2
:103C8000019CFCF765FA010008D0D02008704C7048
:103C90000420887028680078FCF736FAFFF71CF9D2
:103CA0000120FEBD384BFF1F794AFF1FFD4AFF1F51
:103CB00060EA0000E04AFF1F074A00218B00D35A48
:103CC000834202D1880080187047491CC9B2092973
:103CD000F4D30020704700006073FF1F10B50C463E
:103CE000FFF7EAFF00280DD0002C00D0206080787C
:103CF000FE2803D0FF2803D0162010BD172010BDCA
:103D0000002010BD022010BDFFB581B0FF201E466F
:103D1000174605300A9DFCF71BFA04001BD0B020A3
:103D200020706770029860802671002D06D02046B2
:103D3000FC2229460830FCF77BF905E02046FC22EE
:103D400000210830FCF78CF921460198FCF7DCF9DA
:103D5000002005B0F0BD1320FBE700000548172246
:103D600002800988172901D20420704701800020B1
:103D700070470000724AFF1F0020704708B50A46CE
:103D80000888498888420BD8002809D0002300936E
:103D90001379521DFDF77EFF002803D0002008BDD7
:103DA000012008BD0A2008BDF3B50D4608884988E2
:103DB000002687B0814215D3002813D0002769461A
:103DC0000F710097002369881A46FDF763FF04000E
:103DD0004FD068460079002807D069464979012903
:103DE00025D008E0012009B0F0BD217802291BD0C0
:103DF00002216A4651711222504301AA618980183A
:103E00004180684600791223584380181022001D13
:103E10006168FCF70DF968460079401C0106090E3F
:103E2000684601711FD11AE001216A46517121785B
:103E300002291ED1820001A86189121851806A46A8
:103E400012796168920010180222001DFCF7F0F848
:103E50006A461079401CC0B21071052803D26189EE
:103E60000A48814200D101266089401C80B2002EA0
:103E7000A7D068460079002805D001A90798FCF76B
:103E8000DBFD0020AFE70A20ADE70000FFFF0000E8
:103E900038B50C4608884988884215D8002813D0C0
:103EA0002379621D02210B48FCF74BFD00280DD041
:103EB00000200090237961882088621DFDF7EAFECA
:103EC000002805D0002038BD012038BD102038BDA5
:103ED0000A2038BDB881021108B50A460888498809
:103EE00088420BD8002809D0002300931379521D73
:103EF000FDF7D0FE002803D0002008BD012008BD3A
:103F00000A2008BDF8B500250F4606460C46E037E6
:103F100017E06800205A0021FDF796FE002809D01E
:103F2000017A3046FEF72AF8002808D06900615A65
:103F30002180F8BD6800205A20800120F8BD6D1C4A
:103F4000EDB2B87DA842E4D80020F8BD10B5044613
:103F500008880021FDF778FE002804D0017A204669
:103F6000FEF70CF810BD012010BD000030B585B083
:103F700005466946FCF7E4FD040026D168468078D2
:103F8000C1071E4809D08268002A04D068886946A3
:103F90009047044619E0062417E04268002A05D03D
:103FA000688869469047040001D10EE006246846FF
:103FB0004078002809D16846817801730021C181C9
:103FC0000474688803A9FCF7F7FCA868002801D0EE
:103FD000FCF7DCF8002C05D168468078122807D061
:103FE0001B2803D068880121FEF78EF805B030BD8C
:103FF000684640780128F5D1F8E70000104BFF1F14
:1040000070B505460C4608880021FDF71DFE002806
:1040100005D0017A22462846FDF7C3FF70BD012076
:1040200070BD00000149486070470000104BFF1F41
:1040300010B50446801C00F046FDFF20E07010BD66
:1040400010B500F025F8002800D0806810BD0022CF
:104050009300CB5A834202D1900040187047521C03
:10406000D2B2092AF4D3002070470000074A002189
:10407000CB00D35A834202D1C80080187047491C34
:10408000C9B20829F4D30020704700009862FF1FCE
:104090000649496805E08A88824201D188687047EC
:1040A00009680029F7D10020704700005C47FF1F16
:1040B000F8B50746012906D0022923D1012101F0D4
:1040C00057FD00281ED13846FFF7D0FF050015D058
:1040D00000240D4E0CE0F820696860430818018840
:1040E000002908D0F8220021FBF7BAFF641CE4B2D3
:1040F00070788442EFD30020C043288003493846BB
:10410000FDF73EFBF8BD00005C47FF1F886CFF1FFA
:10411000F3B5064683B00830019000200090708807
:10412000FFF7A4FF07002FD0002523E0F8207968CF
:1041300068430C182188002920D0019800780128B4
:104140000FD16088009023797088621DFDF72EFDE5
:104150000090002805D0019900200870049821885B
:104160000180F82200212046FBF77AFF00206D1C19
:104170002080EDB2074840788542D7D30020C04365
:1041800038800098002802D17088FCF73FFC009826
:1041900005B0F0BD5C47FF1FF3B50546374C06463A
:1041A00085B00835F62200212046FBF759FF03A809
:1041B00000902B79698828886A1DFDF76BFD0746FA
:1041C00045E070882E4A4100515C2E4BC91FC9B290
:1041D0000093002202910192284B69468A89F63B9E
:1041E0003946FDF77FFB002812D12648E979C01E29
:1041F000C27891420CD121492846F6390830FBF7A4
:1042000023FF002804D02178788989000919488083
:1042100068468289698804AB3846FDF76DFD07461C
:104220002078810009194A88002A10D0002F05D073
:104230006A46128A401C20708A800AE00206002129
:10424000920DC9431219401C2070918006E0002F86
:1042500004D00D48217800888142B2D3207800280C
:1042600006D070882146FCF7D9FB002007B0F0BDCE
:104270000698298801800A20F8E700008E6BFF1F4E
:104280003473FF1F5F47FF1F6E4AFF1FF0B585B0F5
:10429000044600206946888120790E2869D00FDC09
:1042A000082823D004DC022813D0062818D118E0EF
:1042B00025460835484F0A281DD00C2810D138E073
:1042C00010285BD012285ED0162861D0182877D12C
:1042D00063E043484149008808806088FCF776FB2A
:1042E0006EE003A92046FFF757FF5AE003A92046D6
:1042F00000F076F955E0288804A9FDF7A5FC010037
:1043000015D06088354E4200BA5C0023521ED2B2EE
:104310000193029200966A46731C128AFDF7E2FA34
:1043200000281DD160883146FCF710FD48E00120CF
:1043300016E0288804A9FDF787FC0100F7D0608803
:104340006B884200BA5C254E521ED2B20193029293
:1043500000966A46731C128AFDF7C4FA002803D03F
:1043600029886A4691811CE060883146FCF7BEFCD2
:1043700026E003A9204600F0D3F912E003A9204665
:1043800000F082F80DE003A9204600F039FA08E0B9
:1043900003A9204600F028F803E003A92046FFF710
:1043A000B7FE00280CD06178142909D00B49227976
:1043B0000A706A4692894A8008716088FCF7FCFAA4
:1043C0002046FDF729FC07488168002901D02046D6
:1043D000884705B0F0BD00003473FF1F8E6BFF1FD0
:1043E0006C4AFF1F5C47FF1FF8B504460F460546A1
:1043F000083400896946FDF727FC06003AD0307A78
:1044000080060ED568460088FFF71AFE030006D026
:104410006888122231469847060002D02BE00E260B
:1044200029E06E883046FFF721FE010005D11448CF
:10443000FFF71CFE01000ED00E80124A00205278B9
:1044400007E0F8264B6846439B5B002B05D0401CD9
:10445000C0B29042F5D309260DE04968F8225043D6
:1044600008182146FBF7E4FD002668882146FCF782
:1044700033FC02E00126208838803046F8BD000079
:10448000FFFF00005C47FF1FF3B58BB000200B9EC1
:104490000746039004A800903246337B7189308927
:1044A0004C4C0D320836FDF7F5FB054678E00B98CD
:1044B000297A4088FDF762FD070003D00C986989CE
:1044C00001806FE00B984449408800234200895CDA
:1044D0000193891FCAB24149009102923D4B69463E
:1044E0000A8AF63B2946FDF7FDF90700E6D1039855
:1044F000002833D039486178C01EC078021D91422F
:1045000053D1039909180B98408842003248805AC9
:10451000801F814249DC0399A87A6118887003984A
:104520006989401CC0B22218090A401C9170C0B2AF
:1045300003906846028A718807AB2846FDF7DCFBCA
:10454000050011D003986946898B20188170039863
:104550006946401C898BC0B2090A0CE01F48C01E86
:10456000C078001D6070D6E70398FF212018817085
:104570000398401CC0B222189170401CC0B2174969
:104580000390C91ECA7813492018F639801CFBF71E
:104590004FFD12490398C91EC9784018C0B2039054
:1045A000002D84D1039800280CD061780398FBF784
:1045B0003BFE20700B9821464088FCF7A1FB0020B1
:1045C0000DB0F0BD002F00D10A270C983188018072
:1045D0003846F5E78E6BFF1F3473FF1F5F47FF1FE1
:1045E000F3B50746044608378BB04948049038882D
:1045F00000252E4605906AE007A800903B7979884F
:104600007A1D0598FDF746FB0890002852D0408996
:1046100005900898017A6088FDF7B0FC06005DD12E
:1046200060883C494200895C3B4B091FC9B200933A
:10463000002202910192364B69468A8BF63B08991B
:10464000FDF750F9060049D1002D36D00498417885
:104650003148C01EC078801C814241D12E4BDB1EE8
:10466000D8782918608842002A48805A001F814261
:1046700020DC0898817A04984019817008996D1C93
:104680004989E8B20A0A049909188A70401CC5B21F
:1046900019460498CA781E494019F639801CFBF760
:1046A000C7FC1D481D49C01EC0782818C5B2059812
:1046B000884209D1002D13D123E017480499C01E68
:1046C000C078801C4870C9E7401C80B205906088A3
:1046D00041001048405A001FA8428DDA002D0ED02C
:1046E000049841782846FBF79FFD01460498017025
:1046F00060880499FCF712FB00200DB0F0BD002E7D
:1047000000D10A260C99059808803046F5E700008C
:104710008E6BFF1F3473FF1F5F47FF1FFFFF0000FB
:10472000F3B506460446002085B0324D00900836A9
:10473000287007463046E030049048E07800305A50
:1047400003A9FDF781FA01001AD060882B4B84463B
:1047500042002948805C0093401EC0B200220290B3
:104760000192244B68468289F63B6046FDF7BAF811
:104770000090002807D07800315A0698018035E073
:1047800001200090F7E71D492878C91EC978421812
:1047900061884B001849C95A4B1E9A4204DD081A19
:1047A0001649C91E401EC8702978681C081813498C
:1047B000C91ECA780F49F639FBF73AFC0F48297829
:1047C000C01EC078081828707F1C0498FFB2807D36
:1047D000B84207D96088297842000748805A401EAD
:1047E0008142ABDB60882946FCF7A6FA009807B047
:1047F000F0BD00008E6BFF1F3473FF1F5F47FF1F6C
:10480000F3B5054683B004460835008901A9FDF7D4
:104810001BFA2746E8370646002822D0307A800661
:104820000ED568468088FFF70BFC030006D0608831
:10483000122231469847060002D013E00E2611E0FE
:1048400000200090AB7829886088EA1CFDF7AEF95B
:10485000060007D1387E002807D16088FCF7A2FA4D
:1048600003E00126049829880180387E002802D0C0
:10487000002005B0F0BD3046FBE70000F8B5044667
:104880001F208001604382B218480025184F4570F0
:104890007868002807D00020C100C919401CC0B2A8
:1048A0004D600828F8D3124E002140363046FBF701
:1048B000D7FB002108466043C0B2F8225043831959
:1048C0000B48CA0012180020536005E0F827474340
:1048D0005368401CDD53C0B2A042F7D3491CC9B293
:1048E0000829E7D3014844700020F8BD5C47FF1F4A
:1048F0009862FF1F7CB50C78069D022C0ED14C6887
:104900002678647824023419054EA4B2F44205D105
:10491000022400950194FCF74BFF7CBD01207CBD77
:10492000FED6FFFFF8B505461D48854223D0461C3C
:10493000002921D001292BD002291CD10121284690
:1049400001F016F9002816D12846FFF7B5F9040042
:1049500011D0A078FF280ED0FE2807D000200090AC
:10496000E0781E2314222946FFF7CEF92046FFF7F0
:104970005FFBFF20A070F8BD2846FFF79DF90028D7
:10498000F9D13046FFF798F90028F4D00580F8BD3A
:104990002846FFF791F90400F9D02680D9E70000F6
:1049A000FEFF000038B5040010D0A078FF280DD01D
:1049B000FE280BD0002000902188E0781E231722CB
:1049C000FFF7A2F9FE20A070FF20E07038BD0000C4
:1049D000F3B50C468978C1B01E2914D02E4D287825
:1049E000FF2829D0182927D84808C2002B481218B8
:1049F000803A976F002F1FD0D06F00281CD02078EE
:104A0000002817D113E04198FFF756F905000BD0A5
:104A100000200090A378E87800224199FFF774F90C
:104A200006462846FFF704FB304643B0F0BD6278E7
:104A3000012A03D1122901D00620F6E702AE009622
:104A4000A3886178A268B8470028EED1A078400812
:104A5000C100124808188038C26F02A941989047D7
:104A600000280FD061780029DFD1A27869460A704A
:104A7000087168460189418069464198FBF79CFFAF
:104A80000020D2E7A378042BCFD00096002228780C
:104A90004199FFF739F9C8E7084BFF1F548102110C
:104AA00000B50346FDF75AFA002803D0C018401E8F
:104AB00080B200BD184600BD10B57D24E4006243FD
:104AC000FBF7F4FB10BD10B5040008D02078FF28D8
:104AD00005D0FE2803D0FBF7EFFBFF20207010BDB0
:104AE000F7B506460F461020FBF7F6FA05461020EC
:104AF000FBF7F2FA0446002D3AD0002C2DD01022FC
:104B00000021FBF7ADFA2A462146304602F066F84E
:104B1000060023D12878000604D43946284600F040
:104B200055FE08E02146284600F050FE3A4611495D
:104B3000204603F0A9FA3878000604D438460299D2
:104B400000F044FE0AE02146384600F03FFE0949E5
:104B50002046029A03F098FA00E013262846FBF755
:104B6000CDFA002C02D02046FBF7C8FA3046FEBD35
:104B70001326F6E7DE810211F8B5069800271D46D8
:104B800014460E46002801D00B20F8BD30780021D5
:104B9000022801D019704DE0706802784078000258
:104BA0001018152280B25202801A0300FBF752FA45
:104BB0000504121F1A254100F068FBF7C3FAC2B2C0
:104BC0000798824200D902462A70F1682046FBF716
:104BD0002FFA30E0F0680221008829702070000A66
:104BE000607028E0062028700246F168EEE7012098
:104BF0002870F068007820701DE0F068002816D05A
:104C000008212970017821700188090A6170817872
:104C1000A1704188090AE170017921718188090A2E
:104C200061718179A171C088000AE07103E0297087
:104C300001E0297001273846F8BD10B50B788407CC
:104C400002D50224234301E0FD2423400B70030717
:104C50000B7802D50824234301E0F72423400B708E
:104C600083060B7802D52024234301E0DF24234070
:104C70000B700A21084201D1810603D510780C215E
:104C8000084304E0002803D11078F3210840107095
:104C900010BD0000FFB581B0087800240A9E1F46B1
:104CA0000D4602280FD16868017840780002081884
:104CB000152180B24902401A09D0012829D00228C2
:104CC00048D003283CD00124204605B0F0BDE86858
:104CD000FBF738FAC0B2864205D8F01900901528C3
:104CE00003D90D24F0E70724EEE7E8683A46801977
:104CF0000399FBF79DF90098EA6880B200211154EE
:104D00001C4840680028DFD001680029DCD0002062
:104D100012E0002E12D1022BE3D10399E8680A7841
:104D20004978090251180180124840680028CBD008
:104D300001680029C8D001208847C5E70B24C3E7D4
:104D4000002EFBD1062BCCD10622E8680399FBF795
:104D50006FF9B9E7002EF1D1012BC2D10398007889
:104D6000002803D0012801D08024ADE7E96808704D
:104D7000AAE700007446FF1F70B5094D0446285D80
:104D8000FF2804D00021FBF79DFAFF2028550C20B6
:104D9000444304482018416849084900416070BDF7
:104DA0006046FF1F00E000400C21484312494018B4
:104DB0004168490849004160416801221204914359
:104DC0004160416849004908416041680722120377
:104DD000914341604168FF22013291434160416843
:104DE0001022914341608168090C09048160816847
:104DF00089B281607047000000E00040F8B50746C6
:104E00001C4615460E461220FBF762FA0C2047435B
:104E10001248381841684908490041604168072232
:104E2000120391433203114341604168FF22013272
:104E300091432A02114341604168102291432201AB
:104E40001143416041680122D207114341600022B1
:104E500011461220FBF742FAF8BD000000E00040C6
:104E600070B504460D460A30C1B22846FBF73CFA3D
:104E70000C200549604340184168012211434160FC
:104E80000248055570BD000000E000406046FF1F6D
:104E900010B5914215D80C2358430A4BC0184468EA
:104EA00001231B049C43446084680904A4B20C439E
:104EB00084608168090C09041143816041681943C9
:104EC000416010BD00E0004010B5094C206800288A
:104ED0000CD11220FBF70EFA0648026801210A43A2
:104EE0000260026810231A430260216010BD0000B6
:104EF0005C46FF1F00E0004010B50B4C2068012805
:104F000010D11220FBF7FCF9084801684908490054
:104F1000016001681022914301600020206012208E
:104F2000FBF7F4F910BD00005C46FF1F00E00040F5
:104F300070B50C460A46054601460FA0FDF730FF46
:104F4000144885420CD0144E012C0AD0022C05D1F5
:104F50000121284600F00CFE002802D0002030700D
:104F600070BD0E492846FCF70BFC30780028F7D0BE
:104F7000FBF7D2F970BD000068616E646C65436F29
:104F80006E6E53746174757343422025782C20250E
:104F9000640A0000FEFF0000B047FF1FAC6CFF1F5B
:104FA00008B509488368002B0CD01A78694601209F
:104FB0005B1CFDF76CFF002804D00078C00701D00F
:104FC000012008BD002008BDE04AFF1F10B50346C0
:104FD0000B4A00200A21414389184988002905D03D
:104FE000401CC0B20328F5D3002010BD0A210024C4
:104FF000414354540446403488184480037210BD21
:105000009473FF1F0A7802700A88120A42708A7825
:1050100082704A88120AC2700A7902718A88120A5A
:1050200042718A798271C988090AC1710820704762
:10503000F8B505460C4648680421FBF7B3F8217A19
:10504000017021890346401C090A017021784170D2
:105050002188090A8170207A001DC2B2FB2A35D846
:105060001B48854215D114461E460C20FBF770F8EC
:1050700001000CD090200870022008714D808E60D5
:105080001448CC800078FBF73FF800271CE013277A
:105090001AE05C2010496843441826464036307EAA
:1050A000002805D00D480727416A491C41620BE0E2
:1050B0002146284600F08EF90746307E002803D1AD
:1050C00021462846FBF72EF93846F8BD0220F8BDE8
:1050D000FEFF00001D4BFF1FA475FF1F8478FF1FFC
:1050E00010B50A4A00210A234B439B185C88002C08
:1050F00006D01B79834203D10A204143881810BD92
:10510000491CC9B20329EED3002010BD9473FF1FC0
:10511000002141800170704770477CB504000FD0BA
:10512000608800280CD00025009501951323E188A4
:10513000207A172200F028F8FF2060726580257021
:105140007CBDF8B5074615460E461020FBF700F863
:10515000040017D0A0202070002060706680002D11
:1051600005D00C222946201DFAF762FF04E00C222C
:105170000021201DFAF774FF21463846FAF7C4FFD4
:105180000020F8BD0120F8BDFFB581B01E461746CE
:1051900014200B9DFAF7DCFF04001AD0A220207027
:1051A0006770029860800A9820716671002D06D0A1
:1051B00020460C2229460830FAF73AFF05E020463F
:1051C0000C2200210830FAF74BFF21460198FAF72C
:1051D0009BFF05B0F0BD022A1CD34B780A781B0256
:1051E000D21892B20280012A02D0022A06D00FE021
:1051F0008A78C97809025118418009E0CB788A7809
:105200001B02D21842800A7949790902511881801B
:105210000020704701207047F8B506464D880020F1
:1052200070600A790C46022A11D029015B4800916E
:10523000415A002906D0009B1F18BB68002B01D0E3
:10524000012A7AD056484169491C4161A1E0E288AF
:10525000042A41D3A068437801781B02C91889B297
:105260000091C37881781B02C9188FB2017AC07986
:10527000000208184B4948800099091D8A421FD135
:10528000072F12D0052F10D0042F02D0062F23D1C4
:105290000BE042482901405A002806D02846FCF776
:1052A00097FF3F480169491C0161009830813780B0
:1052B0000321C943A068FAF775FF70600020F8BDAC
:1052C000072F16D0052F14D0042F06D0062F10D08C
:1052D0003348C168491CC1605EE030482901405A2A
:1052E000002806D02846FCF773FF2D480169491CA9
:1052F00001612A492D01002048536E180098B081A1
:10530000B7800098FCF7CAFFB060002816D00321D0
:10531000C943A068FAF746FFE28801461F4F121FF3
:10532000B068FAF785FE785BE1884018001F785373
:105330001B480168491C01602EE004E0184881699F
:10534000491C816128E0E2888918009A89B281525B
:10535000BA89914219D80546B868E2884018801A7F
:10536000A168FAF765FE0098295AB889814213D1DD
:105370003081B8883080B868706000990020685229
:1053800007484168491C416006E005488168491C9E
:1053900081602846FCF71CFF0120F8BD2475FF1F23
:1053A0008478FF1F3C4BFF1F022A01D00120704769
:1053B0000A784978090251180180002070470A785C
:1053C00002704A7842708A78C9780902511841807F
:1053D00070470000FFB50C4607463D49A1208000FC
:1053E000096878434018FF30C130067E89B0154601
:1053F0003846FBF735FB001DB04204D23846FBF7B8
:105400002FFB001DC6B2B54207D82A4600213846F8
:105410000C9BFAF78DFF0DB0F0BD31462846FAF728
:1054200003FF2746403738740C9961650146714384
:10543000691AC9B202910C9904910299002901D00C
:10544000401C3874002523E00299002904D0401E36
:10545000A84201D1084600E03046E90005910391D9
:105460006054FCF74DFE03990919486000281BD0D1
:105470000599625C0499FAF7DBFD0598215C0498B4
:10548000081804901348C169491C6D1CEDB2C16134
:10549000387CA842D8D8606D002803D0FAF776FE91
:1054A000002060650020B6E700203874064660657D
:1054B00006E0F00000194068FAF768FE761CF6B2C4
:1054C000AE42F6D30348C16A491CC1621320A2E769
:1054D0003409FF1F8478FF1FF7B586B016460D46C6
:1054E0004878FFF7FDFD040010D0002727712878C9
:1054F000012802D0132809D105E06A88314602A8A4
:10550000FFF769FE0AE02078032802D0002009B0E6
:10551000F0BD6A88314602A8FFF746FF06462046DE
:1055200000F04CF902A8019000972B78207A3246BF
:105530000699FFF729FE2046FFF7EAFD3046E6E729
:10554000FEB50446468801466846FFF765FE0546F7
:10555000019800282FD068460088052806D0042826
:1055600009D0062807D0072805D026E0694630462E
:1055700000F030F821E08100154808180146403954
:10558000098E002919D02038807C6A463146FFF701
:10559000D8FD002811D168460088042803D00121D5
:1055A0003046FCF7B1FD012D04D1A068002801D0E0
:1055B000FAF7ECFDFEBD012D04D1A068002801D052
:1055C000FAF7E4FD01213046FCF79EFDFEBD000028
:1055D0008473FF1F30B50546088987B00C46042840
:1055E00017D302A86168FFF7EAFE684640891728CA
:1055F00037D82189001D81421ED16846007AC10733
:1056000009D0626802A92846121DFFF765FF00282D
:1056100012D107B030BD6168091D122805D00020E5
:1056200069460880497A6A4622E06846428903A8AA
:10563000FCF79AFD002803D02846FFF76DFDE8E748
:105640000D4881880029E4D06946497A03AA01926D
:10565000009169460B7A807900222946FFF794FD74
:10566000D7E701216846018017214180417A6A46C7
:105670002846FCF72DFDCCE78473FF1FF8B5002505
:105680002C461648290144520E18B481B480B068E3
:10569000002802D0FAF77AFDB4605C202946414325
:1056A0000E4880300F183E46403634747474347699
:1056B000786D002802D0FAF769FD7C650026F000BD
:1056C00038184068002801D0FAF760FD761C0A2ED1
:1056D000F5DB6D1C082DD4DBF8BD00002475FF1F21
:1056E000FFB589B015460E461720129FFCF7D6FD70
:1056F000040021D0684606704570002F03D0201D9D
:105700000C99B84700E00020694648802670657013
:105710004888A070010AE170052269468A82001D4E
:105720000694888305A90998FFF782FC050004D038
:105730002046FAF72BFD00E0132528460DB0F0BDFA
:10574000FFB581B01E46054601210A9F0B9C00F063
:105750000FFA002811D02046FFF738FC00280AD0A5
:10576000C5800446077012484178491C0A06120E8B
:10577000427004D005E015250FE014250DE001224C
:105780004270227100962846039B0299FFF7A8FFFA
:10579000050005D02046FFF7BBFC284605B0F0BD4C
:1057A00023462146034A09330348FAF77FFDF4E70D
:1057B0003C4BFF1F307500001B51021110B5044611
:1057C000407AFAF779FDFF20607210BD10B5002411
:1057D0000F22835C5B0023438B54835C521EDC09E5
:1057E00052B2002AF5DA10BD10B50300FAF732FC08
:1057F00008050711131521272D20002100E0FF21A6
:10580000022000F029F80021002000F025F80021F6
:1058100009E000210EE0002112E0002116E0002046
:1058200000F01AF8FF21012000F016F800F024F82B
:1058300010BDFF21022000F00FF8FF21E4E7FF2157
:10584000022000F009F80021E9E7FF21022000F022
:1058500003F8FF21E3E70000022803D8FF2201320A
:10586000914201D906207047024A4000115200209F
:10587000704700006646FF1F70B54D4CA088218818
:1058800040186188C84266D00020FFF775FA0020F2
:10589000FFF78AFA0120FFF76FFA0120FFF784FA79
:1058A0000220FFF769FA0220FFF77EFAFFF724FBD8
:1058B00000210920FAF742FD00210D20FAF73EFDF4
:1058C00000210C20FAF73AFD02210920FAF73CFDED
:1058D00002210D20FAF738FD02210C20FAF734FDE1
:1058E0002088FF25013500280ED000231A46062106
:1058F0001846FFF783FA21882A460020FFF7C8FAE6
:1059000009210020FFF7ACFA608800280ED00023A0
:105910001A4606210120FFF771FA61882A46012004
:10592000FFF7B6FA0C210120FFF79AFAA0880028A9
:105930000ED000231A4606210220FFF75FFAA18845
:105940002A460220FFF7A4FA0D210220FFF788FA69
:10595000FFF7BAFA70BD0020FFF70EFA0020FFF73C
:1059600023FA0120FFF708FA0120FFF71DFA0220B1
:10597000FFF702FA0220FFF717FAFFF7BDFA00213E
:105980000920FAF7DBFC00210D20FAF7D7FC0021F3
:105990000C20FAF7D3FC02210920FAF7D5FC0221EA
:1059A0000D20FAF7D1FC02210C20FAF7CDFC70BDD6
:1059B0006646FF1FFFB581B01E4617460D460846D6
:1059C00000F048F8002802D0112005B0F0BD0D48C5
:1059D00000F040F8040013D066710622A01D0A9959
:1059E000FAF726FB6580277101982070002060621D
:1059F0000B98A0810021284600F06CFC0020E4E711
:105A00001520E2E7FFFF000070B514460D4606467C
:105A100000F020F800280BD0416A007900290CD052
:105A2000C20611D580070AD4002C08D0052070BD0D
:105A3000074886420AD0142070BDC006F6D5887E7D
:105A4000A84203D20C2070BD0F2070BD002070BD95
:105A5000FEFF0000084A002128234B439B185B8867
:105A6000834203D12820414388187047491CC9B29A
:105A70000829F1D300207047B473FF1F30B50B4CD9
:105A80000B4B002128224A43D5186D88A54206D029
:105A90009A5C824203D128204143C81830BD491C7A
:105AA000C9B20829EED3002030BD0000FFFF00007E
:105AB000B473FF1F10B500200A4C0B4B014628227F
:105AC0004243D2185480401C1171C0B25162082860
:105AD000F5D3064A00208300401CC0B2D1500C28E8
