:020000041102E7
:1000000003B40148019001BD7511000003B401481B
:10001000019001BD75A9000003B40148019001BD24
:10002000C93E000003B40148019001BD9DA9000034
:1000300003B40148019001BD8944000003B40148A4
:10004000019001BD2144000003B40148019001BDAD
:100050001130000003B40148019001BD53B9000004
:1000600003B40148019001BDB30E000003B4014880
:10007000019001BD6189000003B40148019001BDF8
:100080001907010003B40148019001BDA9D800007F
:1000900003B40148019001BDB352010003B401480B
:1000A000019001BD0D52010003B40148019001BD52
:1000B0008B52010003B40148019001BDC1A50000AD
:1000C00003B40148019001BD9D6A000003B40148DA
:1000D000019001BD116E000003B40148019001BD03
:1000E000E94C010003B40148019001BDCD4C010071
:1000F00003B40148019001BD51B8000003B40148A8
:10010000019001BD85C1000003B40148019001BD0B
:100110002DFC000003B40148019001BD25E700005B
:1001200003B40148019001BDEDB8000003B40148DB
:10013000019001BD3148000003B40148019001BDA8
:10014000C53F000003B40148019001BDF5D5000092
:1001500003B40148019001BDF1FA000003B4014865
:10016000019001BD6536FF1F03B40148019001BD38
:100170009946000003B40148019001BD15470000F5
:1001800003B40148019001BDC5F0000003B401486B
:10019000019001BD79F4000003B40148019001BD54
:1001A00063EC000003B40148019001BD05FF0000AD
:1001B00003B40148019001BD3161000003B401485E
:1001C000019001BD59E4000003B40148019001BD54
:1001D000D5E4000003B40148019001BD01BF000057
:1001E00003B40148019001BD21F1000003B40148AE
:1001F000019001BD39B8000003B40148019001BD70
:1002000077F1000003B40148019001BDC1E2000094
:1002100003B40148019001BD154D010003B401482C
:10022000019001BD8DE3000003B40148019001BDC0
:100230005511010003B40148019001BDA5FD000066
:1002400003B40148019001BD852CFF1F03B4014890
:10025000019001BDADAE000003B40148019001BDA5
:10026000456B010003B40148019001BDF54E01004A
:1002700003B40148019001BD434D010003B401489E
:10028000019001BD2526000003B40148019001BD85
:10029000C94A010003B40148019001BD691F000073
:1002A00003B40148019001BD5D17000003B401488B
:1002B000019001BD3D4B010003B40148019001BD17
:1002C0005952010003B40148019001BD51250000BD
:1002D00003B40148019001BD014C010003B4014881
:1002E000019001BD594F010003B40148019001BDC7
:1002F0001D4B010003B40148019001BD8D120000A7
:1003000003B40148019001BD4D1F000003B4014832
:10031000019001BD5522000003B40148019001BDC8
:10032000DD52010003B40148019001BD1D4D0100E3
:1003300003B40148019001BD810E000003B40148DF
:10034000019001BD017F000003B40148019001BD8F
:10035000E117000003B40148019001BD79180000C5
:1003600003B40148019001BDD949010003B401481B
:10037000019001BDE928000003B40148019001BDCE
:100380005549010003B40148019001BD45510100E8
:1003900003B40148019001BDC926000003B401481F
:1003A000019001BD1DBC000003B40148019001BDD6
:1003B0006DBC000003B40148019001BD355500003B
:1003C00003B40148019001BDC51D000003B40148FC
:1003D000019001BDB161000003B40148019001BD6D
:1003E000315F000003B40148019001BDDD5E0000F3
:1003F00003B40148019001BD5D33FF1F03B4014800
:10040000019001BD810E000003B40148019001BDBF
:10041000D554000003B40148019001BD19550000F6
:1004200003B40148019001BDF932FF1F03B4014834
:10043000019001BDF94C010003B40148019001BDD8
:10044000291C000003B40148019001BD851F000074
:1004500003B40148019001BD090E000003B4014836
:10046000019001BDA946010003B40148019001BDFE
:100470001147010003B40148019001BD5930FF1F2D
:1004800003B40148019001BD7B1FFF1F03B4014865
:10049000019001BD551FFF1F03B40148019001BD2C
:1004A0002124000003B40148019001BDB11F0000E8
:1004B00003B40148019001BDD91F000003B40148F5
:1004C000019001BDAD21000003B40148019001BDC0
:1004D000E548000003B40148019001BD2951010025
:1004E00003B40148019001BDD91B000003B40148C9
:1004F000019001BD5147010003B40148019001BDC5
:100500002147FF1F38B5044600F0C6F9014668468A
:1005100001704470210A81706A4603210248FFF786
:100520006FFD002038BD00001B20000038B50446D8
:1005300000F0D8F90146684601704470210A8170C4
:100540006A4603210248FFF75BFD002038BD00002A
:100550001A20000008B5002802D000F071FB00E06E
:100560001220694608706A4601210248FFF748FDDB
:10057000002008BD0520000070B50C460546FFF7B9
:1005800045FD21462846FFF747FD0446FFF74AFD93
:10059000204670BDFFB5064601208007816881B006
:1005A0001C461022114381605C4F002038603046A9
:1005B000D730FFF73DFD9D20800035468059FF363E
:1005C000CA350136002830682A4633D00121FFF7AA
:1005D00035FD52482978C163A9786A780902114328
:1005E00049BAEA780904120211432A791143816356
:1005F000A9796A790902114349BAEA790904120210
:1006000011432A7A11434163A97A6A7A0902114394
:1006100049BAEA7A0904120211432A7B11430163A1
:100620000399029A09021143C160039A00203C49D0
:10063000121D11E00021CAE72318DF78255C3F0670
:100640003D439F785B783F041B021F433D434318A3
:100650001D60001D80B2121F042AEDDA032A04D0A7
:10066000022A0DD0012A11D015E022189378527871
:100670001B0412021343225C13434218136008E068
:1006800023185A781B7812021A4300E0225C4318A0
:100690001A60001D80B2002202E043181A60001D9B
:1006A000FF28FADD1D481F4B43600F230361012320
:1006B00003604369002BFCD043699D0701D45B07AD
:1006C00008D401208007826810218A4382600020BC
:1006D00005B0F0BD02600023039A11E058180068CD
:1006E000E0545B1C9BB2050AE5545B1C050C9BB2F5
:1006F000E5545B1C9BB2000EE0545B1C9BB2121FC6
:10070000002AEBDC3068401C3060012080078268E2
:1007100010218A4382600120DAE7000000000440D3
:1007200000010440080F0000FFB5064601208007C5
:10073000816881B01C46102211438160544F002013
:1007400038603046D730FFF773FC9D208000354677
:100750008059CA3580360028F06F2A4632D00021F1
:10076000FFF76CFC4A482978C163A9786A780902C6
:10077000114349BAEA780904120211432A79114354
:100780008163A9796A790902114349BAEA790904AE
:10079000120211432A7A11434163A97A6A7A090243
:1007A000114349BAEA7A0904120211432A7B114320
:1007B00001630399029A09021143C1600020354A7E
:1007C000039911E00121CBE72318DF78255C3F0670
:1007D0003D439F785B783F041B021F433D438318D2
:1007E0001D60001D80B2091F0429EDDA032904D021
:1007F00002290BD001290FD013E0231899785B78D8
:1008000009041B021943235C194306E021184B78A5
:100810000D781902294300E0215C83181960001D3E
:1008200080B2002102E083181960001DFF28FADD64
:100830000F2317481B0243600F230361012303604A
:100840004369002BFCD0016003980023001D11E0D8
:1008500099180968E1545B1C9BB20D0AE5545B1CB6
:100860000D0C9BB2E5545B1C9BB2090EE1545B1C62
:100870009BB2001F0028EBDCF06F401CF0670120EA
:100880008007826810218A43826005B0F0BD0000B5
:10089000000004400001044010B5114AA121890064
:1008A000126841438C189D2189000959012901D002
:1008B0000C2010BDFFF7C8FB0028FAD1E01DF9306D
:1008C00002790621012A06D041710D212046FFF749
:1008D000C1FB002010BDFF20213001550221F5E7AA
:1008E0003409FF1F70B50D46134AA1218900126813
:1008F00041438C189D2189000959012901D00C2000
:1009000070BD002D16D0FFF79FFB0028F8D11021F5
:100910000B1A2A5C1B19E033401CC0B29A711028D4
:10092000F6D30121F820015505212046FFF792FB5F
:10093000002070BD122070BD3409FF1FF8B5069D60
:10094000079C1746002806D0002904D0002C04D0AC
:10095000012C04D005E01220F8BD2A2601E0FF2674
:100960000736134A1770134A106013480370134870
:10097000057013480D4604700024B61D14E0A12133
:100980002046890048430B49009009684018A1217E
:100990008900FFF765FB0749009809684018FF3098
:1009A0008130C562AD19641CBC42E8DB0020F8BD93
:1009B0001409FF1F3409FF1F1509FF1F1609FF1F28
:1009C0001709FF1FF8B56B4D0028AB7916D0012B26
:1009D00001D0032B12D168490A78FF2A0ED14A7838
:1009E000FF2A0BD18A78FF2A08D1CA78FF2A05D1BD
:1009F0000A79FF2A02D14979FF2930D05F490A7864
:100A0000012A1DD000265E4C0E702178092970D075
:100A10000A296ED00B296CD00C296AD00D2968D018
:100A2000052966D0062964D0AA7B002A0AD0012AAB
:100A300008D0032A06D0022A04D0042A0FD101E0EC
:100A40000C20F8BD002B05D0012B03D0022B01D0C8
:100A5000032B04D14B4F00286AD0012801D012206B
:100A6000F8BDA888012844D0002917D11300FFF74A
:100A7000FDFA050408100C082400012020701F2036
:100A80000AE002202070202006E0042020702220AE
:100A900002E0032020702120FFF7EEFA20782821C1
:100AA00001280DD002280BD0042809D0032807D034
:100AB00007280ED008280CD01BE026701E20EBE77C
:100AC000314806602975FFF7DDFA00281FD0AE8097
:100AD0000FE02E488068808D80060AD52C48027869
:100AE000002A06D1AA7B032A05D0022A03D0002AB5
:100AF00001D02120F8BD022202702975140321467D
:100B00003878FFF7C5FA21463878FFF7C7FA012091
:100B1000A8802048007800282AD01F480121028898
:100B20007D20C0004243C9033878FFF7BDFA1FE0BB
:100B3000FFF76CFAAE802078072808D0082806D086
:100B400026701648FFF7B6FA1E20FFF795FA1048F0
:100B50000178002905D00670012149033878FFF794
:100B600097FAFFF75FFA0121C9033878FFF790FA87
:100B70000020F8BDA60BFF1F6B09FF1F1A09FF1FFE
:100B80001C09FF1F1B09FF1F4809FF1FBC54FF1F43
:100B90002309FF1F2109FF1F2C09FF1F0010004020
:100BA000F0B585B0044616489C46154600780B9F64
:100BB0000C9E0A9B0D9A04902046202C00D22020E7
:100BC000202900D2202100930392019702966346C8
:100BD0002A46FFF775FA0B49094A4C8004991170AF
:100BE000012D01D0042D08D1074980240978CA01BC
:100BF00006498B88A3431A438A8005B0F0BD0000E4
:100C00001C09FF1FA60BFF1F7809FF1F6C11FF1F98
:100C100010B5FB2908D8084B9A4205D81B2903D3E5
:100C2000FF2349339A4201D2302010BD034B198271
:100C30005A82FFF74BFA10BD480800008410FF1FCE
:100C4000F8B53249097801292AD0022928D0032988
:100C500026D0042924D0052922D0062920D02C49C9
:100C6000097802291CD004291AD0012918D0032997
:100C700016D0062914D0072912D00178254C8C46AD
:100C80002170467866708378A370C278E27001792B
:100C900021714079204D6071AF79012F02D008E0B9
:100CA0000C20F8BD6746EF712E726B72AA72E97262
:100CB00028730622E91D1948FFF70EFA0622E91DDE
:100CC0001748FFF709FA1748017801290BD1217855
:100CD000417061788170A178C170E17801712179EA
:100CE0004171617981711048017801290BD1217816
:100CF000417061788170A178C170E17801712179CA
:100D00004171617981710020F8BD00001C09FF1F4D
:100D10002309FF1F6B09FF1FA60BFF1F7211FF1F87
:100D20008A13FF1FBC0BFF1FD40BFF1F70B50446B7
:100D3000FF30FF300230406F0D46012812D1282DC0
:100D400010D1A420005BE188401A0B4980B2884290
:100D500008D321466A3105220E46481FFFF7C2F923
:100D6000002804D029462046FFF7C2F970BD31465D
:100D70002046FFF7C3F970BDFF7F0000F0B50546C0
:100D800087B0E03004902846A030039040380590AA
:100D9000092080012E462818FF36E13602903046A1
:100DA0002030EF1DF9372C468034019098E1E07A2D
:100DB000801E0300FFF75AF91A0E3822396BF638F5
:100DC000C13892D1A9383838383838F5F4F3F238C8
:100DD00038F1F038A07A012803D02846FFF794F9BB
:100DE00012E0C2488078002801D0162129E1608AEB
:100DF000401E0004000C60826FD06FE1A07A0128D1
:100E000004D02846FFF786F9A07267E1B748C0789A
:100E10000028ECD02846FFF783F92A46294628798E
:100E2000C832C031FFF782F95AE1A07A012813D005
:100E30000498C07D012821D00498007E00287BD032
:100E40002A4629462846D732B031E730FFF774F9F1
:100E500004990120C87543E1A448C078002805D052
:100E60000399012088710020E0673860B879012873
:100E7000BDD106212846FFF765F931E12846FFF785
:100E800067F90128B9D10020B8710120BCE7A07A28
:100E9000012803D02846FFF761F9B5E79348C078E9
:100EA0000028A4D0E88C68842846FFF739F9059912
:100EB0000120C876207138790128287909D00122CB
:100EC0000021FFF751F9002038713872F871B871BC
:100ED00006E10021FFF74EF9F5E7B1E0A07A01281D
:100EE00005D02846FFF74CF9012807D0F6E0F8793D
:100EF0000128BDD12846FFF713F9F1E00020F87171
:100F0000039988710120A072EAE0A07A012804D038
:100F100079792846FFF73AF976E77448C1780029CD
:100F200006D0039A00219171059A0121D176217191
:100F300080780028DED15AE787E0A07A012803D024
:100F40002846FFF729F95FE76848C0780028F2D003
:100F500001203873E88C6884CCE7A07A012805D09A
:100F60000120F8752846FFF71DF94DE7787D012827
:100F700006D0608A401E0004000C608213D0ADE0F1
:100F8000B87D0128B6D1B88B00907B8B3A7E297949
:100F90000020FFF70DF9ADE788E06BE03DE02DE0C4
:100FA0001BE009E095E0B88B00907B8B3A7E2979B5
:100FB0002220FFF7FDF843E0A07A012806D028465A
:100FC000FFF7FCF8A0720020707487E04748C078F3
:100FD0000028B0D0012070748CE7A07A012803D0DB
:100FE0002846FFF7F1F80FE74048C0780028A2D064
:100FF000002030742879FFF7EDF87BE7A07A01280C
:1010000003D02846FFF7ECF82FE03848C0780028D6
:1010100091D00199012008726CE7A07A012807D0CD
:10102000707FB17F084012D0410714D5042017E02B
:101030002E48C07800288AD001990020C871E8E7BE
:1010400022212846FFF7D2F8012007B0F0BD707EBC
:101050007075B07E05E0800701D5022000E0012018
:101060007075B0752846FFF7C7F8A0720199002087
:10107000087233E0A07A012807D02846FFF7C2F8AB
:10108000A07202990120087628E01848C07800284C
:10109000A2D1608A401E0004000C60821ED1144858
:1010A000042200212818FFF7B3F8C9E7A07A012825
:1010B00003D02846FFF7B2F8A6E60C48C07800280F
:1010C0000ED00299002008760299C875FFF7ACF897
:1010D00010E72846FFF7AEF801288ED00020B4E7CD
:1010E000E07B002800D062E6AFE70000E010FF1FC1
:1010F000560200000D480C4901600D4981600B4902
:101100000C4A40314A610D4B0B4A5A610C4AC2628B
:101110000C4A82630C4A8A600C49416307490C48B7
:101120004039086270470000A10B02114000FF1F08
:10113000C5090211A940FF1F7D3EFF1F4002FF1F8E
:101140003136FF1F3935FF1F2D0D02117D0D0211A4
:101150009937FF1F104880681049421C04D0322282
:10116000D04201DB322800DD0020087070470A48B9
:10117000C1680B484A1C09D01F2907D8C26BC90691
:1011800052095201C90E0A43C2637047C16B490933
:1011900049010931C163704700400011680AFF1F0F
:1011A00080F00040F8B57E4D7C4900200446A960DF
:1011B0008200401C8C50FF28FADDA86879498822FB
:1011C00011507949C16279490978002902D07649DC
:1011D0001131C1620A210165754909788163754938
:1011E000C161FFF72DF8A968734848611920800193
:1011F0008861084637228030C260082336220B649B
:10120000CA6328224A6436224260322202603B22AC
:101210000364C263282242644122C2643922826488
:10122000322243650265282282650222026642223A
:10123000C2651E22836642662822C2662022426759
:10124000422202675A22436102613C228261AF223C
:10125000D2000A60594A0A63FF222D32FF258A60B4
:10126000F5350D61CA60564A8A646A00554EC267F8
:10127000CE644A62544A8A627322CA6506224A656B
:101280008A65CA1DF932022713604F664B27FF009B
:101290008F660927CF664D4F0F678C674B67BB1072
:1012A000CB674B4FFF313E60454E86626E008667CE
:1012B000642646620526C66202260663C826466381
:1012C0008463382050604348106443489061B00004
:1012D000D06158101062A8005062D4661E201467B6
:1012E000906698009065136653645367D0653B48D9
:1012F00090673B4881315B00D0670E1D0B6029C6AB
:101300004B20C0000D611063FF20913048656800DC
:10131000C86535483349214A81603449803A1161B2
:101320003149334A80318A62324ACA62324A826122
:10133000324AC262324A02632B4A3248403A506310
:101340003148D0633148C8613148274990633148FA
:1013500040318861314930488860234830498038BD
:1013600041603049416320492F4AC039CA60304A40
:101370002E4B1D4CD3632F4B403C23632E4B8B6273
:101380002E49C1632E49C1602E4850632E48E0604B
:10139000FEF75CFF0120FEF75FFFF8BD0004FF1FB2
:1013A000BC54FF1F407CFF1F6E0400008851FF1FCC
:1013B0004A0AFF1F3A07000080C3C9019A020000D1
:1013C00050C30000280A00006A180000204E0000E8
:1013D000F009FF1F0040001168100000DC0500004C
:1013E00040420F00B13AFF1F0001FF1F6D20FF1F99
:1013F0003943FF1F0D46FF1F5120FF1F2907021110
:1014000095050211512BFF1F852AFF1FF54EFF1F67
:10141000ED4CFF1FD51FFF1F110C02110002FF1F13
:101420006935FF1F7538FF1F4122FF1F7905021123
:101430000000FF1F6D41FF1FA536FF1FFD3CFF1F72
:10144000FD36FF1F2922FF1F7D35FF1F0A7802701E
:101450008A7842704A88120A82700979C170042021
:1014600070470A7802700988090A417002207047A3
:1014700010B500220EE093005B189C7804705C8825
:10148000521C240A44701C7984709B88D2B21B0AB7
:10149000C370001D0B789342EDD81806800D10BD67
:1014A000F8B50D4606464978012031700024761CB7
:1014B00016E06978012917D01221614349198A7809
:1014C00032704A88871C120A7270B61C102230468D
:1014D000091DFEF701FE1037B8B21036641CE4B2E5
:1014E0002978A142E5D8F8BDA10049198A7832705F
:1014F0004A88871C120A7270B61C02223046091DE7
:10150000FEF7EAFDBF1CB8B2B61CE7E710B50C4603
:10151000097801702188090A41706288211D801CA8
:10152000FEF7DAFD6088801C80B210BD10B50C4655
:10153000097801702188090A4170A1788170618859
:10154000090AC170A288A11D001DFEF7C5FDA08873
:10155000001D80B210BD10B50C460A88891CFEF72C
:10156000BBFD208810BD10B50B788A7802705343FC
:10157000DCB22246401C091DFEF7AEFD601C10BD0A
:1015800010B50B788A7802705343DCB22246401CB7
:10159000091DFEF7A1FD601C10BD10B50C460A88A0
:1015A000891CFEF799FD208810BD10B50C460A88ED
:1015B000891CFEF791FD208810BD7FB515460446B5
:1015C000022901D0102903D1022B04D0102B02D004
:1015D000002004B070BD994202D10A46294607E0B6
:1015E0001029694607D000F00DF8102269462846F8
:1015F000FEF778FDEDE7104600F004F8102269468A
:101600002046F5E770B50C4605000CD0002C0AD03A
:10161000102206492046FEF75FFD2878207368787F
:101620006073012070BD002070BD0000148D021198
:1016300010B50B460122024902F076F810BD0000F9
:101640004D14021170B5064608880C46172812D3AF
:101650000B4603220949304602F066F8050008D11E
:10166000074920880988884200D20146304600F0A8
:10167000CFF9284670BD022070BD0000631402112E
:101680001C55FF1F10B500231922194602F04CF813
:1016900010BD000010B50A78002A05D00B460722BD
:1016A000024902F041F810BD022010BD7114021170
:1016B00010B54A78012A01D0022A08D10A78002AF6
:1016C00005D00B460522034902F02EF810BD02207A
:1016D00010BD0000A1140211024940008968085A97
:1016E000704700001055FF1F10B50B461D22024920
:1016F00002F01AF810BD00000D15021110B50B46CE
:101700001B22024902F010F810BD00000D15021155
:1017100010B50649002089681723054A02E04400F5
:101720000B53401C1478A042F9DB10BD1055FF1F6D
:10173000D855FF1F0098022B01D004207047117864
:101740005278120289180180002070470098012BFE
:1017500001D004207047117801700020704770B5E7
:10176000049C1E461546062B1BD36978287809026F
:1017700040182080E978A878090240186080022289
:101780002271291D601DFEF7A7FCB61FB2B222818F
:10179000F02A06D82046A91D0A30FEF79DFC00203D
:1017A00070BD042070BD0098042B01D00420704748
:1017B000537811781B02C91801809178D2781202EF
:1017C0008918418000207047F8B584890D46064687
:1017D000002C26D0B2681778380620D50C2C20D9DA
:1017E0000C3CA4B21019009001217088234601F02E
:1017F000DBFC002811D0022028707806C00F68702A
:10180000B806800EA870641E2004000CA88001D0C9
:10181000B068401CA8600020F8BD0120ECE7002063
:10182000EAE70120F8BD10B502981146042B14D345
:101830004C780A78240212190280CC788A78240223
:10184000121942801B1F9AB28280F22A05D8801D8D
:10185000091DFEF741FC002010BD042010BD0098BA
:10186000042B01D004207047537811781B02C9184B
:1018700001809178D2781202891841800020704747
:1018800010B502981146062B03D0142B03D0042068
:1018900010BD022200E0102202714B780A781B0270
:1018A000D2180280CB788A781B02D2184280027943
:1018B000401D091DFEF710FC002010BD30B5039C33
:1018C000D80718D1D805010E022914D30B488088F7
:1018D000814210D8F6200155002008E05578137891
:1018E0002D025B194500401C6353C0B2921C884214
:1018F000F4D3002030BD042030BD00001055FF1F80
:101900000098022B01D004207047117852781202FF
:10191000891801800020704770B51446024604986B
:10192000022B18D3667825783602AD190580054656
:10193000E0352A766976002A0BD0E8219B1E9AB200
:1019400042808A4207D8A11C001DFEF7C5FB00207B
:1019500070BDF421F2E7042070BD000010B50B4605
:101960001722024901F0E0FE10BD00002D15021102
:1019700010B50B460D22024901F0D6FE10BD000045
:101980005715021110B50A78002A05D00B4611220E
:10199000024901F0C9FE10BD022010BD67150211F9
:1019A00010B50A78002A05D00B460922024901F039
:1019B000BBFE10BD022010BD8115021110B50B46F3
:1019C0000F22024901F0B0FE10BD00009B1502116C
:1019D00010B50B460B22024901F0A6FE10BD000017
:1019E000AB150211F72800D9F720084A01461080EC
:1019F000401EC3179B0F18188003000C5080491E0F
:101A0000C80F4018C003000C908070471055FF1F8E
:101A1000034A1388994202D89268400011527047D5
:101A20001055FF1F10B500231322194601F07CFE4C
:101A300010BD000070B50C460146032000020A1AD2
:101A4000002534481300FEF711FB1D1012151C1F52
:101A50002326282C303234383A3C3E404244464813
:101A60004A4E50525A5456585A00C07911E010222A
:101A7000294902E02849102210312046FEF72CFBAC
:101A800045E0C06A206042E0224906223C31F4E78A
:101A9000007820703BE0808936E01E494278423170
:101AA000EBE71D4982781F39E7E7007AF1E7407AD2
:101AB000EFE7184906223031DFE7807AE9E7C07A9C
:101AC000E7E7C08920E0808A1EE0C0781CE0C08A79
:101AD0001AE0008B18E0408B16E0808B14E00D4973
:101AE00006223631C9E7C08B0EE0008C0CE0408C3A
:101AF0000AE08079CDE7008A06E0408A04E02729E1
:101B000004D2084600F078FA208000E0022528463A
:101B100070BD00005C52FF1F996AFF1F70B50E4C2C
:101B200000256071A571691EE18100F091FB042020
:101B3000E071102200210948FEF76AFB07481022D5
:101B400000211030FEF764FBE56225726572072004
:101B5000A072E57270BD00005C52FF1F996AFF1F02
:101B6000FEB53B4D0C4608040CD56879FEF77AFBB0
:101B7000050004D002F078FC2846FEF779FB01202E
:101B8000C00360E0600403D5012080034840FEBD2F
:101B90002F48E1070126807900292AD029780029D9
:101BA00020D0052821D0297A68460170697A4170D1
:101BB000274906223031801CFEF78EFAA97A684642
:101BC0000172E97A41726946687900F02DFA0028BD
:101BD00008D00720A871696A002903D00968002984
:101BE00000D0884720467040FEBD0320694608703B
:101BF000E4E7A1070DD5052809D1E889FEF73EFBEA
:101C0000AA8A002A03D002216879FEF74DFA022041
:101C100019E0600704D5002002F07EFC042012E0E9
:101C2000200712D52879012802D002280AD107E01E
:101C30000096AB8B6A8B298BE88A00F00BF801E0E9
:101C400000F05AF908206040FEBD0020FEBD0000F3
:101C50005C52FF1FF8B5134C069EA579052D01D0E7
:101C60001420F8BD104F851FBD4219D2062917D385
:101C7000BD1DA94214D2FF27F537BA4210D20A2B54
:101C80000ED3AB420CD2E08221836283A383304621
:101C900002F042FC04216079FEF7FAF90020F8BD59
:101CA0001820F8BD5C52FF1F7A0C0000F7B50D46F6
:101CB00080490098164642187F4F00247879B979F8
:101CC0001300FEF7D3F9190E141BE9204045597093
:101CD000777E888FE996A2A9B4BFC8E9E9E9E9D37C
:101CE000E900102D76D11022314674486FE0102D96
:101CF00070D1724810223146103068E0042D69D14D
:101D00003068F862CEE0012D64D13B7832783A70C9
:101D1000002B0AD0002A07D1022903D0062901D0BE
:101D2000042901D100F03EF9BCE0002A0AD00129C3
:101D300005D0032903D0052901D0042902D10121AE
:101D4000FEF7ACF9AEE0022D44D13088B881A9E0AD
:101D50001F2D3FD858481F2200214230FEF758FA65
:101D600055482A4631464230FEF7B6F9524B7D704F
:101D700042332A46012112E01F2D7CD84F481F22F2
:101D800000211F38FEF744FA4C482A4631461F38D6
:101D9000FEF7A2F9494B2A461F3BBD700021787916
:101DA00000F0CCFA83E0012D65D13078042862D8A8
:101DB000387277E0012D5ED1307803285BD87872D5
:101DC00070E0062D57D13C48062231463030FEF7F0
:101DD00083F967E04FE0012D4DD1307807284AD8CC
:101DE000B8725FE0012D46D13078032843D8F872ED
:101DF00058E0022D3FD13288BA82002A52D00529FC
:101E000050D10221FEF750F94CE0012D33D130784A
:101E1000012830D8F87045E03088022D2BD10628F3
:101E200029D31921C901884225D8F8823AE030889F
:101E3000022D20D106281ED31921C90188421AD8A3
:101E400038832FE03088022D15D1FF21F5318842EB
:101E500011D2788326E03088022D0CD10A280AD3CB
:101E60001921C901884206D8B8831BE03178012DB9
:101E700001D1012901D0182414E00821FEF704FA49
:101E8000002801D016240DE0002002F045FB0421BB
:101E90007879FEF7FDF805E00098272801D2022D99
:101EA00002D002242046FEBD318800F0F7F9044636
:101EB000F8E70000FFFCFFFF5C52FF1F996AFF1F5D
:101EC0001CB50B4CA179002901D011201CBD0028A4
:101ED00000D06062064907482C310346019100900A
:101EE000103B0022E179607900F016F800201CBD5B
:101EF0005C52FF1FA96AFF1F10B5064881790529AA
:101F000001D0122010BDC1891322407900F0D6F90A
:101F100010BD00005C52FF1FFFB581B01E460D468C
:101F200002240B9F0B00FEF7A1F80D1A0B1A1A0BD7
:101F30001A1A1A1A1A1A1A081A000AA001F01CFD15
:101F40002946019800F0D4F8040008D13A463046FA
:101F50000A9900F083F900F0E7F801F015F920463E
:101F600005B0F0BD4741505F446576696365496ED1
:101F700069743A204741505F50524F46494C455F83
:101F800043454E5452414C207C204741505F5052B3
:101F90004F46494C455F5045524950484552414C87
:101FA000200A000070B5104C2168002904D009787F
:101FB000814203D0032070BD122070BD0B4D022161
:101FC0002878FEF765F80A4800264680042128781C
:101FD000FEF75EF80748068021680320487000205D
:101FE000FEF758F970BD00008055FF1FB155FF1F67
:101FF0009455FF1F2455FF1F272803D20249400094
:10200000085A7047014870472C55FF1FFFFF00001A
:1020100010B5044C6070FEF743F90521607800F0BC
:102020009DFF10BDB055FF1F70B5284E05463068A6
:102030000C46002801D0112070BD254801780520EC
:10204000014216D023488068002805D00078002877
:1020500002D0C80706D101E0102070BD00F044F89E
:10206000002808D02078032805D0022803D00028B3
:1020700001D0122070BD0C20FEF718F93060002846
:1020800020D00570002141700A222146801CFEF7F5
:1020900023F802F025FB040002D001F009FD12E054
:1020A0000D48007803280ED11D20FFF7A5FF0B492E
:1020B0000028088007D00B48094A04210078FEF761
:1020C000FBF800E01324204670BD00008055FF1F80
:1020D0002155FF1F9455FF1F2255FF1F2455FF1F39
:1020E00060EA0000B155FF1F10B504F029FC10BDD7
:1020F00070B50C4605461C2200210948FEF788F8F9
:10210000084805704470FEF7DDF80549002803D043
:1021100000200870122070BD01220A7070BD0000FE
:10212000A073FF1F2055FF1F70B50F4C0025A0683E
:10213000002802D0FEF7CCF8A560E068002802D0A5
:10214000FEF7C6F8E560094805210078084206D088
:102150000548103002F08AF801F04CFC70BD0020F8
:1021600002F084F8002070BD9455FF1F2155FF1F19
:10217000FEB5344D0C46080419D56878FEF772F8A0
:102180000121C9034C40064600280ED001F08EFF05
:10219000002807D12878FF2804D03146FEF79EF8A2
:1021A000002802D03046FEF763F82046FEBDE00767
:1021B000012700280AD0A868002804D04168002917
:1021C00001D00020884720467840FEBDA00709D5F1
:1021D0006868002804D04168002901D001208847A0
:1021E00002202AE060072AD5174E308800281FD029
:1021F000401E0004000C30801ED101F0CFFC0028EE
:1022000009D0124807706868002804D04168002986
:1022100001D00120884701F09BFC694600F00EFFC9
:10222000684601F02DFF1D20FFF7E6FE308003E039
:1022300004216878FDF72CFF04206040FEBD0020DB
:10224000FEBD0000B055FF1F2455FF1F2355FF1F83
:102250000149087070470000B055FF1F70B50E4C63
:102260000B46261D07C60546102200211846FEF71C
:102270003BF8012803D11021A06805F023FA1022B1
:1022800000212846FEF730F8012803D110216068AC
:1022900005F018FA70BD0000A073FF1F272807D2B1
:1022A000044A914204D0044A400011520020704771
:1022B00002207047FFFF00002C55FF1FF8B50D46A8
:1022C00017461D4906461B4A12248868954208D1C4
:1022D00000282DD00268002A2AD02946304690478F
:1022E00023E0144A521C954213D1002807D00268FB
:1022F000002A04D0294630469047040005D03946CC
:10230000304601F051FB040012D10B4806704770B3
:102310000EE0284604F0B8FA002809D00078B04250
:1023200005D139462846FDF7E5FF044600E00324C1
:102330002046F8BDFEFF00008455FF1FF8B50E468D
:10234000014619481546007805221F46104028D03E
:10235000304326D01548012E1BD0C468002C20D055
:102360001F2D18D8002D01D0002F14D001701F226E
:102370000021601CFDF74CFF2A463946601CFDF722
:10238000ABFE28462570002E07D0611CFDF7B8FF74
:10239000F8BD8468E2E70220F8BD611CFDF7B6FFD6
:1023A000F8BD1220F8BD00002155FF1F9455FF1FF6
:1023B000014610B50020C90704D0034A0421034890
:1023C00000F0FEF910BD0000E88C0211E052FF1F82
:1023D00010B5002309E01C012418E468944202D1DE
:1023E0001901081810BD5B1C9BB28B42F3D300206F
:1023F00010BD000070B50F4D0F4CA8702946183164
:10240000204600F01DF8002128460B461030CA0077
:1024100084521218491C09065360090EF7D0012096
:1024200003F054F8A87800F095FB044804F09EFAF5
:1024300070BD0000C052FF1FFFFF0000E14C021101
:1024400070B50A4C0025A04209D1002082008C52B0
:102450005218401CC0B295700228F7D370BD02F02C
:102460000EFC0028FAD00480857070BDFFFF0000CC
:10247000F8B50E460746069900240798002902D0B1
:102480000B242046F8BD022B01D00D24F9E711786A
:102490005278120289188DB22946814301D08024D6
:1024A000EFE73846F16800F083F9A842E9D02A4600
:1024B0003846F16800F0EEF90400E2D171892A464D
:1024C000384600F0ABF9DCE7FFB50446C1B01F4663
:1024D00000881E4A00254A9B904233D0A0780028ED
:1024E00030D00A4619463846FFF772FF060029D059
:1024F000174A208812684100515C0023C91EC9B2E6
:1025000003AA02320193029100927A8904AB314608
:1025100000F03CF8002815D1708969468881A078C0
:10252000C00705D0208803A9439A00F0E1FA0546C8
:10253000A078800706D5208803A94B9B439A00F01A
:1025400079FA0543284645B0F0BD0000FFFF0000C2
:102550001855FF1F70B50C46080412D50A4880783C
:10256000FDF780FE050008D02878B02802D1284663
:1025700002F0A2FC2846FDF77BFE0120C00360406C
:1025800070BD002070BD0000C052FF1FFFB587B0B6
:10259000087A0025109E1C460F46C0060DD50998E6
:1025A00002F066FB030006D00A22394607989847D6
:1025B000050035D101E00E2532E0387802281DD122
:1025C000786829220178407812020002081880B247
:1025D000811A90427ED009DC7249401A23D001282A
:1025E00021D0022851D0032808D125E0012972D03A
:1025F000022971D003296DD004296ED0099802F008
:102600005FFB0028D7D00568002DD4D0129911980F
:10261000019100903346224639460798A84705465F
:1026200028460BB0F0BD1198002873D1F8680178E6
:1026300031800278416897E0119800286AD1012022
:102640003080F8680021007820707889401C80B2C2
:1026500000F04EF900280FD0318802788918891CC3
:102660003180817A61704189090AA17002784168DC
:10267000E01CFDF731FDD3E730880422001D3080D7
:102680000021601CFDF7C4FDCAE71198002872D133
:10269000F86804A900880090042030800098207019
:1026A0000098000A6070009800F022F9070028D016
:1026B000F86805906846028A03AB3B49384600F04B
:1026C0006FF900280FD13B78022138487A68FEF76D
:1026D00074FF03E027E031E01DE049E0002802D16B
:1026E0003148694688810598007802280CD1059800
:1026F00002224168201DFDF7EFFC3088801C3080ED
:1027000002E069460098888168468089A070000AC6
:10271000E07085E72FE0119800282CD1F968079820
:1027200000F046F804E01198002824D1F8680088E9
:10273000022131802070000A607071E7F868FDF7AF
:10274000EBFD1199C0B2814210D8814201D1002223
:1027500006E0129A8918814202D31199401AC2B236
:102760003280F96811980918204682E7072557E753
:102770001198002801D00B2552E70721F868318015
:1027800001782170417861708178A1704188090ACF
:10279000E1700179217181796171C088000AA071AD
:1027A0003EE7000000280000FFFF00008A8D0211B4
:1027B00010B502F064FA002800D0807810BD000047
:1027C0007CB51446050019D068460195018000F0DB
:1027D000C7F903001DD1002C1BD06D89002D0DD031
:1027E0000C20FDF763FD00280AD0002303608580DC
:1027F000094A84609168002904D006E0022308E0B9
:10280000132306E0906004E011460A68002AFBD119
:10281000086018467CBD0000C052FF1FF8B50C4C84
:102820000746207815460E46FF280FD00A20FDF7F0
:1028300079FD01000AD0B1200870002048700871AD
:102840004F80CE800D812078FDF748FDF8BD000057
:10285000C052FF1FFFB583B008461F4601A90C9E5A
:1028600000F046F8050012D06846808802F028FA89
:1028700000280AD04468002C07D000963B46294621
:10288000059A0398A04707B0F0BD0E20FBE7012092
:10289000F9E7000070B514460E46054602F0EFF960
:1028A000002806D13146054802F0E9F9002803D096
:1028B00005808470002070BD112070BDFFFF0000F6
:1028C00010B50178B0290BD14178002908D10179E0
:1028D000122906D01B2903D14088012100F0BAFA41
:1028E00010BDFF210231095C0129F5D010BD0000A7
:1028F000F0B58C4610494B6819E09F687C89A0426E
:1029000014D39E883119814210D900220CE01101A4
:102910007D186989814205D16046002800D0048075
:102920002846F0BD521C92B29642F0D81B68002B8C
:10293000E3D10020F0BD0000BC55FF1FFFB51748D4
:1029400081B00A9F446824E000251EE0A0682901A8
:10295000461870890199884215D30299884212D885
:102960000498002807D031787068049B039AFEF71A
:1029700024FE002807D0002F02D0A06840893880AC
:10298000304605B0F0BD6D1CADB2A088A842DDD8C0
:102990002468002CD8D10020F3E70000BC55FF1FAD
:1029A000FEB5174600256A469580044640891D4AB3
:1029B0001E46904208D001AA0092401C237880B2A3
:1029C0006268FFF7BBFF054623780221164862685C
:1029D000FEF7F3FD002807D123780221134862682F
:1029E000FEF7EBFD002801D060890EE0237802217C
:1029F0000F486268FEF7E1FD00280DD0002D03D0DE
:102A000068468088B84203D0384602F073FE04E07E
:102A10006889401E80B200E06089002E00D03080BE
:102A20002846FEBDFFFF0000888D02118A8D02112D
:102A30008E8D0211FFB581B00F461E4614466946C1
:102A4000019801F063FF050018D1002C06D0012287
:102A50001021019803F0F2FE05000FD139460198CC
:102A6000FEF742FE050009D1009CFF2E06D021464C
:102A70001E22A31C034802F049FEE670284605B05A
:102A8000F0BD0000F955021110B505490870042188
:102A900000F064FA00F006F8FEF73AFE10BD000000
:102AA000C855FF1FF8B50F4D0D4B00206E1C1C784C
:102AB000FF2209E09F688100C91900280ED00E800E
:102AC000CA70401C8A70C0B2A042F3D3064802F01C
:102AD000C1F8064803F04AFF0020F8BD0D80EFE77B
:102AE000BC55FF1FFEFF000025560211795502114B
:102AF000F8B50D4614460646694601F007FF17284B
:102B00000CD0002C06D001221021304603F096FE96
:102B1000002803D129463046FEF7F0FDF8BD00003D
:102B200070B50C46080411D509480078FDF79AFBEA
:102B3000050007D00178A02901D102F02FF828461E
:102B4000FDF796FB0120C003604070BD002070BD02
:102B5000C855FF1F0149487070470000BC55FF1F52
:102B600070B50546008800281DD0686802210378EA
:102B700042682248FEF721FD002808D1686802213A
:102B8000037842681E48FEF718FD00280BD01D4C44
:102B90006088002805D0012229881204101A814279
:102BA00003D9012070BD022070BD0C20FDF77EFB13
:102BB000060001D000200BE0132070BD01016B68FE
:102BC00062880A315A526188491C401C618080B277
:102BD00029888142F2D80020306008222946301D21
:102BE000FDF77AFA6068002802D1666004E00846C2
:102BF00001680029FBD10660002070BD888D02119C
:102C00008A8D0211BC55FF1F0649496806E08A6893
:102C10005289824201D18888704709680029F6D11B
:102C200000207047BC55FF1F10B51422114201D07F
:102C3000012202E04A0604D50022102103F0FEFD25
:102C400010BDC80701D0002010BD022010BD10B576
:102C500014468A0604D50122102103F0EFFD10BDB1
:102C6000882211420ED008220A40102103F0E6FD0E
:102C700000280BD0E034617E0029F0D0217E0129AC
:102C8000EDD103E0880701D4032010BD002010BD62
:102C9000014610B50020C90704D0034A07210348A4
:102CA000FFF78EFD10BD0000D48C0211E851FF1F0C
:102CB00070B50D46164600241D490300FDF7D6F9F0
:102CC00008051234341934222934152D23D816223C
:102CD00000211848FDF79CFA2A4631461548FDF7B1
:102CE000FBF922E0022D16D1114910881039088015
:102CF0001BE0082D0FD10E48082231460838FDF799
:102D000017FB12E0012D06D1CA6909493078283134
:102D100007E0012D01D0182407E0CA6B0449307880
:102D2000483102F0B4FD00E00224204670BD0000EE
:102D3000E851FF1F646AFF1FF0B5069F099E002837
:102D400033D0102831D800292FD0002A2DD0002BC5
:102D50002BD0002F29D0079C002C26D0089C002CBB
:102D600023D0002E21D00A9C002C1ED0104C051D13
:102D700020706570A26061600E490F4A0B60059972
:102D800011600E490E4A0F60079911600D4A0899AB
:102D900011600D49401C08700C490E600C49087008
:102DA0000C490A9808600020F0BD1820F0BD000012
:102DB000D855FF1F1C56FF1F1855FF1F9055FF1FAA
:102DC0000856FF1F0C56FF1FFC55FF1F0056FF1F24
:102DD000BC55FF1FC455FF1F0B7803700B880222E0
:102DE0001B0A43700B88801C012B02D0022B07D0DA
:102DF00011E08A7802704988090A417004220AE0C9
:102E00008A7802704A88120A42700A798270898828
:102E1000090AC170062210467047000008B5044B2D
:102E2000009313460A46012103F058FC08BD000038
:102E3000D92D02111CB50323019200930A46024BBF
:102E4000122103F07BFC1CBDBD5F021110B5FDF724
:102E500075FA10BD13B504480078012803D101AA02
:102E60006946FDF771FA1CBDD455FF1F70B51049B6
:102E7000104A087000210B468C00491CC9B213533C
:102E80000429F9D30B4C00211034FF260A460A25E9
:102E90006A4315196B80491CA354C9B26E72032989
:102EA000F4D3FDF757FA03F0CFFB03F023FD70BD19
:102EB000D555FF1FBC73FF1F082A01D001207047A2
:102EC0004B780A781B02D2180280CB788A781B02D2
:102ED000D21842804B790A791B02D21882808A79F3
:102EE000C97909025118C1800020704770B50C469D
:102EF000080411D509480078FDF7B4F9050007D09A
:102F00000178902901D103F001FB2846FDF7B0F9C3
:102F10000120C003604070BD002070BDD555FF1F6B
:102F200070B50C490978884213D20B4C06016068D1
:102F30000025855330188581606830188580606869
:102F400030188068002804D0FDF70AFA606830184D
:102F5000856070BDD855FF1F0456FF1F072907D095
:102F6000052905D0042903D0062901D00220704785
:102F7000044A8B009A181346403B1986203A9074F5
:102F800000207047BC73FF1F70B51749097888424D
:102F900028D25C21154C4843A168054640180026FC
:102FA00040300674A068281840304674A06828187D
:102FB00040300676A0682818406D002804D0FDF740
:102FC000CFF9A068281846650026A068F1002818E7
:102FD00040184068002801D0FDF7C2F9761CF6B20F
:102FE0000A2EF2D370BD0000D855FF1F0456FF1FF4
:102FF00070B50A880C460546072A07D0052A05D071
:10300000042A03D0062A01D0022070BD012103F05A
:10301000DFFC002804D02146284602F0E5FF70BD01
:10302000142070BD10B5001D80B2FDF79FF9002877
:1030300003D00321C943FDF79FF910BD38B50C46F5
:10304000050014D0002C12D00321684604F03AFB8E
:103050006946887840218006800E0843694688705A
:103060002246284605F086F8050002D006E0022038
:1030700038BD03226946E01CFDF72EF8284638BD0E
:10308000F7B58EB00E9815460E4600282DD0002DAF
:103090002BD0301DC0B20190FDF708F9040039D0E3
:1030A00000F062FD07463246201D0E99FDF76AF9D1
:1030B000F8B20890E0703804000E0B90A07038024F
:1030C000000E0A9060703F0E277000F047FD014629
:1030D000102202A8FDF756F906AB214602A8019A74
:1030E00004F09EFF060003D010E0022011B0F0BDF6
:1030F000089828700B9868700A98A870EF700822DA
:1031000006A9281DFDF73EF900F034FD2046FDF725
:10311000DFF800E013263046E8E7000010B5064C63
:103120002070FDF735F906212078FFF717FF0348D7
:1031300003F01CFC10BD0000F055FF1F1D770211AD
:1031400070B50C46080419D50D480078FDF78AF8CB
:1031500005000FD004F008FC002808D109480078C9
:10316000FF2804D02946FDF7B9F8002802D02846E8
:10317000FDF77EF80120C003604070BD002070BDE7
:10318000F055FF1FB055FF1F10B5054800784007E8
:1031900001D5044800E0002004F06EFC002010BDC2
:1031A0002155FF1FE455FF1FFFB58DB00F98169CEA
:1031B0000E46002815D0002C13D00D9803F064FBA8
:1031C000050011D06178207809024018A178E278D2
:1031D0000904120689184718286AB84206D3401C09
:1031E00004D0022011B0F0BD1420FBE7002E04D063
:1031F0002879800701D40120F4E70822002106A8DD
:10320000FDF706F81098001DC0B20190FDF74EF8CA
:10321000060017D0301D109A0F99FDF7B3F804225D
:1032200021463046FDF7AEF81022A91802A8FDF796
:10323000A9F806AB314602A8019A04F0F1FE050098
:1032400002D013E01320CDE7082206A908A8FDF755
:1032500099F80822211D08A8FCF744FF012801D095
:10326000012503E039460D9801F094FA3046FDF748
:103270002FF82846B6E7000030B5684CC1B0607240
:1032800006211F20FFF70AF8002069460872012274
:103290000A7307220A748882182219258A836D010D
:1032A0000D848884FF20F53008855DA003C8019156
:1032B000009020786946087606AA01215A48FEF750
:1032C000F5FC59486A460621801CFEF7EFFCC32036
:1032D00004AA01218000FEF7E9FC534802AA01215B
:1032E000001FFEF7E3FC504805AA0221C01EFEF7AE
:1032F000DDFC21465631084611223838FCF7ECFE39
:10330000224661201C321C21C000FEF7CFFC46483B
:10331000224638321E21801EFEF7C8FC312003AA47
:1033200001210001FEF7C2FC3F4807AA0221083034
:10333000FEF7BCFC3C4808AA02210930FEF7B6FCA7
:10334000394809AA02210A30FEF7B0FCC5200AAAB2
:1033500002218000FEF7AAFC2246563215210020E9
:10336000FFF7A6FC29460620FEF798FF294607200E
:10337000FEF794FF29460820FEF790FF2946092012
:10338000FEF78CFF0025ED432846FFF781FC284619
:10339000FFF70EF8284600F01BF90F206946087069
:1033A000002001A901E0062801D2002200E0024627
:1033B0000A54401CC0B2FB28F5D36A460121032001
:1033C00000F054F901AAFB21042000F04FF917493D
:1033D00000200854401CFF28FBDB1048103000F090
:1033E0003BF9F7250120FCF7D9FF0120FCF7DCFFB2
:1033F0002846FEF7F7FA29460DA000F0BDFA012194
:10340000607AFCF74BFE607AFEF722FF0F48FCF76C
:10341000D1FF0F4800F0B0FA41B030BD4C54FF1F4F
:103420000102030405060000090300007072FF1F7B
:103430005B324D627073207C20444C45207C204DD3
:1034400054552025645D200A00000000B470FF1F61
:10345000288E0211FEB5454C0D46080414D5607A3D
:10346000FCF700FF04000CD02078912806D160788A
:103470000E2803D1A1883EA000F07EFA2046FCF77A
:10348000F7FE0120C0036CE0E8070126002808D001
:1034900036481430FEF714FDFCF792FF28467040C2
:1034A000FEBDA80702D502204840FEBD280708D56A
:1034B000684606706A4601213848FEF7F7FB082087
:1034C0004FE068074FD50027354E35E0A089010A47
:1034D00031707070002F18D169460020FCF776FF1C
:1034E00001A90020FCF778FF02A90020FCF77AFF71
:1034F00068460078707468468088FF38FF38023864
:103500008010B0746846007AF0740020FEF7E4F88A
:10351000C01EC1B2224A052003F0FEFEA2890100AE
:1035200003D020A000F028FA09E024A000F024FA3B
:10353000A089401CA0817F1CA0788742C6DB6289DD
:10354000002A07D0E07800280AD10421607AFCF72D
:10355000ABFD05E00421607AFCF79AFD0020A08114
:1035600004206840FEBD0020FEBD00004C54FF1F3B
:103570003D3D3E204843495F434F4D4D414E445FE2
:10358000434F4D504C4554455F4556454E545F435F
:103590004F44453A2025780A00000000050300004A
:1035A0007072FF1F5B4E4F54465F54582045525275
:1035B0005D2025303278202534780A005B4E4F5448
:1035C000465F54585D2025303278202534780A0033
:1035D00070B50546002409490948FEF731FF09483E
:1035E00003F0C4F9E80706D00448074A0E21083062
:1035F000FFF7E6F80446204670BD00003453FF1F75
:10360000FFFF0000E9720211088D021170B500245D
:103610000D46032806D0042808D006280CD0022422
:10362000204670BD094800780870F9E70020FEF7D1
:1036300053F8C21E064904E00020FEF74DF8054984
:10364000C21E2846FCF748FDEAE700002453FF1F8E
:10365000A46DFF1F9A6FFF1F002803D00249486026
:1036600000207047112070472453FF1F10B500241D
:103670001346032806D004280AD006280ED00224B8
:10368000204610BD012911D1094910780870F7E7CB
:10369000FB290BD80A461946064804E0FB2905D841
:1036A0000A4619460448FCF717FDE9E71824E7E73E
:1036B0002453FF1FA46DFF1F9A6FFF1F002805DB17
:1036C000C106C90E0120884001490860704700000A
:1036D00000E100E08307FF22DB0E9A408907090E14
:1036E0009940002808DB830809489B001B181868CC
:1036F00090430843186070470007000F083883089C
:1037000004489B001B18D86990430843D861704750
:1037100000E400E000ED00E00A4610B5014600209C
:10372000FCF766FE10BD0000FFB50F4683B01C49D4
:103730000398896840001646085AFFF773FC040096
:103740002AD00125601C2670002F03D00699B847A7
:10375000401C85B2300610D51021039803F038F9CB
:10376000002801D0192613E06219E9B22046FFF7BC
:1037700087FC06000CD10C35ADB2042168460180EF
:103780000194058169460398FFF732FC060004D0D6
:103790002046FCF7E5FD00E01326304607B0F0BDFB
:1037A0001055FF1F10B586B0044614220FA16846BD
:1037B000FCF724FE1249302008707820487006205B
:1037C000891C6A46A41D641E2378401E1B09D35C15
:1037D0000B70237800061B071B0FD35C4B70891CF2
:1037E000000EF0D10870064806B010BD30313233FB
:1037F00034353637383941424344454600000000ED
:10380000A470FF1FF0B500208BB009900746064654
:1038100005460890079025A000F0AEF828A000F01B
:10382000ABF8002404A92046FCF7EEFD6846838A25
:10383000C28A018B408A03936B4607C36846038A9A
:10384000428B21462AA000F097F86846418B0798E2
:10385000641C081880B207906846018A0998E4B28F
:10386000081880B209906846418A0898081880B202
:1038700008906846008B401985B26846C08A801956
:1038800086B26846808AC01987B2252CCAD323A085
:1038900000F072F86846E0C02CA0089B099A0799CE
:1038A00000F06AF8FCF7B6FD0BB0F0BD5B50455276
:1038B000205354415453204E6F746966795D0D0056
:1038C0002D2D2D2D2D20636820636F6E6E4E20727E
:1038D000784E756D207278437263207278546F4E03
:1038E00020747841636B207478527479200D000045
:1038F0005B5045525D2025303264202530356420F0
:103900002530356420253035642025303564202568
:1039100030356420253035640A000000544F54418E
:103920004C20636820636F6E6E4E2072784E756D0A
:10393000207278437263207278546F4E20747841FD
:10394000636B207478527479200D00000A5B504537
:10395000525D202D2D202530356420253035642002
:103960002530356420253035642025303564202508
:103970003035640A000000000FB410B503AA0448F3
:10398000029903F037F810BC08BC04B018470000D7
:103990001937021138B5034B00240FCB0094FCF704
:1039A0003FFD38BDBC8C021110B50C4602F084FFFF
:1039B000002804D040882146FCF79CFC10BD122052
:1039C00010BD0022002913D0002811D0012806D0F4
:1039D0004A799206920E4A71032805D007E0487989
:1039E000C0221043487102E0402002434A71012284
:1039F0001046704770B5124800250078052108422E
:103A00001BD02020FCF752FC0E4C0028A06013D0E5
:103A100020220021FCF7FCFB2020FCF747FCE060A3
:103A2000002804D020220021FCF7F2FB05E0A0686A
:103A3000FCF74EFC0020A0601325284670BD000056
:103A40002155FF1F9455FF1F002909D0012807D1D8
:103A5000497989098901C02902D0402901D0022071
:103A6000704703207047FFB500200E4608701AE02B
:103A70001C5C401CC5B2002C17D02819904214D8E9
:103A80005F5D6D1CEDB2384600F0ADFE002806D03B
:103A9000641EE0B2307000998F4202D1581904B010
:103AA000F0BD4019C0B29042E2D30020F7E7000019
:103AB00010B5044C2068002803D0FCF709FC002056
:103AC000206010BD8055FF1F70B5104D8400E86860
:103AD0000059002819D0006A002801D0FCF7F8FB33
:103AE000E8680059406A002801D0FCF7F1FBE8685B
:103AF0000059806A002801D0FCF7EAFBE868005909
:103B0000FCF7E6FBE9680020085170BD8455FF1FF3
:103B100010B5044C6068002803D0FCF7D9FB0020E6
:103B2000606010BD8455FF1F011E044805D1044983
:103B30008978002901D00248801D7047B073FF1FAB
:103B40002055FF1F01488078704700002055FF1F57
:103B50000148406870470000A073FF1F014880685B
:103B600070470000A073FF1F0148C06800687047DD
:103B7000A073FF1F10B50748C0680168491C0160A9
:103B800005480078FF2803D001218903FCF786FA55
:103B900010BD0000A073FF1F2055FF1F02484068A2
:103BA000002800D0012070477C55FF1FFFB581B071
:103BB0000F460D9E0A9D039802F066FE040042D057
:103BC000019800283FD120791021084320710499E1
:103BD000490702D50221084301E0FD210840207178
:103BE0000B99284608430C9908433043207902D0AA
:103BF0000421084301E0FB2108402071002E06D07B
:103C00003069102220623146A018FCF765FA002DB9
:103C100001D0002F05D00B98002814D0012F08D018
:103C200011E0606A002801D0FCF752FB1C212846F5
:103C300006E0606A002801D0FCF74AFB1C210B98C3
:103C4000FCF7F4FB60620398274C8700E068C059DA
:103C5000002846D0002D11D0006A002807D11C2072
:103C6000FCF724FBE1680028C959086206D0E06827
:103C70001C22C0592946006AFCF72EFA0C9800282D
:103C800013D0E068C059406A002807D11620FCF71D
:103C90000DFBE1680028C959486206D0E068162289
:103CA000C0590C99406AFCF717FA002E13D0E0684F
:103CB000C059806A002807D11420FCF7F7FAE168A0
:103CC0000028C959886206D0E0681422C0593146DC
:103CD000806AFCF701FA0B9B049A0399019803F0A0
:103CE000E9F805B0F0BD00008455FF1FF3B581B0C1
:103CF000019802F0C9FD050029D00E20FCF712FB47
:103D0000040024D02620FEF777F9060000D12E7893
:103D1000D0202070002767700B20A0700622E91DBC
:103D2000E01CFCF7D9F9019860810298C1070120D5
:103D3000002901D0207300E027730299890701D57B
:103D4000607300E06773F0B22146FCF7C7FAFEBD6E
:103D500010B581881F4B0124CA1A994237D011DC53
:103D60001D4BCA1A994219D007DC1C4A8A1810D078
:103D7000022A1ED0032A29D11BE0472A27D0482A2D
:103D800024D124E01300FCF771F90621222222221B
:103D900022218068007800F0E7FC08E080688278E3
:103DA00041781202891889B2007800F03DFD04467E
:103DB0000DE0094A921E914201D1012200E0002249
:103DC00080680178104600F017FD00E000242046CE
:103DD00010BD0000532000000A200000FADFFFFFA2
:103DE00070B51A4D1A4A0146002628781268194CF7
:103DF00001290CD0002A09D017490978490705D5AF
:103E00000221FCF745F96680FFF752FE70BD61881C
:103E1000002903D0114B1B78002B05D0002AF5D0C8
:103E20001078FEF7BFF870BD3C2902D33C396180A1
:103E300070BD0221FCF72CF962887D20C00042434E
:103E400002212878FCF730F9668070BDB155FF1F5C
:103E50008055FF1F9455FF1F2155FF1F2355FF1F3E
:103E600008B5418900910389C2888188C07800F033
:103E7000C7FB08BDF0B504468088A12189004843EE
:103E8000304987B009684018FF30FF300230A1790F
:103E90004167002C54D02C4D6868002823D0067848
:103EA0002A480068002804D04168002901D0002079
:103EB00088472146E07908310591FFF7C5FDE0719B
:103EC0000246277D638A218AE089019002A88AC080
:103ED000A0880090E0783146059B03F063F8E07815
:103EE000002802D00DE01A48D9E7E079E2896B4654
:103EF000059907C3A379A1880122304602F072FC1C
:103F0000E0706868002811D0FFF702FE28780028CA
:103F10000CD06978FFF748FD002807D0E078A28828
:103F20000346297803F06BF800202870A088172139
:103F3000FDF76EFDA088FEF7F3FFA088FFF724F8D9
:103F400007B0F0BD3409FF1F8455FF1FB455FF1F94
:103F50002055FF1F70B504460025808802F094FCB0
:103F6000002803D00578A08802F016FD134E3078A3
:103F7000002808D0854206D17178FFF715FD00288A
:103F800009D000203070002D05D0A379A288A07838
:103F9000294603F034F8A088F268810051580029BE
:103FA00001D0FFF791FDA0881721FDF731FDA08812
:103FB000FEF7B6FFA088FEF7E7FF70BD8455FF1F30
:103FC00070B58288294D0124531B2949AA4242D049
:103FD00019DC284D531BAA4218D00BDC264BD218F3
:103FE00026D0254B1033D2181ED0032A17D0042A0E
:103FF00039D10BE0012B09D0022B07D0032B21D0A4
:10400000042B30D11AE0433B072B2CD849680029F8
:104010002AD00968002927D08847044624E0806810
:10402000007800F0ADF81FE0806800F001F9F4E7D7
:104030008068411C007800F0D9F8EEE783681B78AF
:10404000002B11D0896800290ED00B6808E00146CA
:1040500010469847E1E709490968002904D04B68F0
:10406000002BF4D100E00024204670BD0E2000009B
:10407000B055FF1F08200000F7EFFFFF8C55FF1F12
:1040800010B5094CA17800290CD001460622A01DCC
:10409000FCF722F8A11DA078FFF793FCA01DFCF708
:1040A00059FA10BD002010BD2055FF1F1CB52F4927
:1040B000037801240A68912B02D0A22B2ED13EE076
:1040C0004178052909D00E2904D00F2908D03E29AE
:1040D00024D115E0FFF774FF10E0FFF73BFF3AE053
:1040E00001468088224B0124C31801D0062B15D12C
:1040F000002A30D05268002A2DD0904704462AE08A
:1041000081780124032917D004DC012911D0022968
:1041100004D105E015291ED016291CD000241AE070
:1041200014498968002916D04968002913D08847A6
:1041300011E0FFF79FFE0EE0FFF792FE0BE00E4945
:104140000978042909D0002A05D05268002A02D033
:1041500001460A48904720461CBD00216A4611804E
:1041600001794088FEF75AFEF5E700008C55FF1FE5
:10417000F3DFFFFFB055FF1F2155FF1FFFFF0000BA
:10418000F8B5164F0646BD1F2878FF2814D00A2020
:10419000FCF7C8F804000FD0D0202070667008200B
:1041A000A070A878E07006223946201DFBF794FF26
:1041B00021462878FCF792F8E87801280DD10848C4
:1041C0000068002803D08068002800D08047064897
:1041D000044A04210078FCF76FF8F8BD2655FF1F4C
:1041E000B455FF1F60EA0000B155FF1F70B50024F1
:1041F0000546002805D1002903D006220B48FBF70D
:104200006BFF0A4810380178012907D10124002DDD
:1042100006D000210170284600F0CEF9204670BD7E
:1042200002210170FCF708F9F8E70000B073FF1FE6
:1042300010B50024002813D002780B49002A03D1BE
:104240004288CA8202790A760A78022A08D102785C
:104250000124002A06D000220A70007800F0ACF990
:10426000204610BD0322F7E7A073FF1F01494860F5
:1042700070470000B055FF1FF8B5794C87780146AC
:10428000002507266079A2793B00FBF7EFFE0805C1
:10429000381C39396196CC38487800285ED170488E
:1042A00006223C30C91CFBF717FF0120A071627881
:1042B000002A07D06A4B012142336079FEF73EF8AD
:1042C00000284BD1A5E00F464978002946D1F9785E
:1042D000002906D0634BA2780021FEF72FF87870F2
:1042E0000AE0022A0BD00121FBF7CEFF002803D100
:1042F00001216079FBF7D2FE787800282ED1F8BD35
:10430000497800292AD1032F09D0A289002A0CD08C
:10431000217800290AD00121FBF7C6FE06E0052A14
:1043200001D0022012E0062010E02570A0790628B6
:1043300002D0042802D008E0052007E00120207008
:1043400001466079FBF7AAFE63E00320A07160E0FC
:1043500048780F46002803D031282CD0A67158E0A9
:104360003F480622391D3630FBF7B6FE7889E081DA
:10437000B8892082F88960820520A071A28A002A6B
:1043800003D002216079FBF78FFEB889E083F889BA
:104390002084388A6084E07801280AD11F20FDF744
:1043A0002BFE7D21C9004843024604216079FBF7BA
:1043B0007BFE25702DE02570C7E729480E460622B2
:1043C00000213630FBF724FFE58325846584042132
:1043D0006079FBF75DFE08216079FBF759FEB07943
:1043E00008280BD00320A071607800280ED0207818
:1043F000002805D06079FDF7D5FD07E00420F2E73D
:104400000120207001466079FBF748FE0020C04380
:10441000E081606A002800D171E701680029FBD0C3
:10442000A0798847F8BD0D460821FBF731FE687872
:104430000028F7D1E888E08328892084688960848F
:1044400004216079FBF720FF0028EBD1A06A002847
:10445000E8D00368628C218CE08B9847F8BD00009F
:104460005C52FF1F7A6AFF1F10B50178224C912918
:1044700006D0A22926D0D02901D1FFF7FDFE10BD1C
:1044800041780E29FBD181881C4A91420FD1816865
:1044900003200856A1790529F1D17F28EFD0616A60
:1044A0000029ECD049680029E9D0884710BD144A9A
:1044B0009142FBD1806883784278017811A0FFF7A0
:1044C0005BFA10BD41791329FBD10089012802D183
:1044D0002079022808D00520FDF78EFD024608212C
:1044E0006079FBF7E1FD10BD08216079FBF7D0FD95
:1044F000FDF702FD10BD00005C52FF1F0514000017
:10450000222000005B48434920444C455D2564203F
:1045100025642025640A00007CB5154C0546E08B17
:10452000E18A88420AD3218B884207D8208C618B8C
:10453000884203D1608CA18B884217D00520FDF7FB
:104540005BFD0646E18A68460180218B4180618BD4
:104550008180A18BC18062796946E089FEF76AFC9F
:104560002571324608216079FBF79EFD7CBD000075
:104570005C52FF1FF8B507460E46084602F084F964
:10458000040018D02620FDF737FD050000D125785E
:104590000620FBF7C7FE04000DD006220021FBF722
:1045A00037FED020207067700E20A070A680E8B281
:1045B0002146FBF793FEF8BD70B50F4D06462878EF
:1045C000FF2818D00E20FBF7ADFE040013D0D0203A
:1045D000207066700020A07006220849E01CFBF7DE
:1045E0007BFD06481038C18A6181007E2073214618
:1045F0002878FBF773FE70BD2055FF1FB073FF1FB7
:10460000FFB581B01E4617460D460C20FBF78AFE0B
:10461000040013D0284602F037F9002810D00078A3
:10462000D0212170019961700721A170A580E780D8
:1046300026810A9961812146FBF750FE05B0F0BD45
:104640000048ECE72055FF1F70B50D4D0446286863
:104650000E46002812D00620FBF764FE010009D0A8
:10466000D02008704C70032088708E8028680078F5
:10467000FBF734FE002C01D0FFF71AFA70BD0000E2
:104680008055FF1FFFB581B01F460E46084602F059
:10469000FBF8050022D01020FBF744FE04001DD0DB
:1046A00010220021FBF7B4FD2620FDF7A5FC002811
:1046B00000D12878D0212170019961700F21A1705B
:1046C000A6800399217267720A99A1720B99E1720F
:1046D0000C99E160C0B22146FBF700FE05B0F0BDC9
:1046E000F0B51F4D85B02868002837D08778FDF7D2
:1046F000FBFC002805D00A20FDF77EFC04900B206F
:104700000EE001F029FC002805D00620FDF774FC1E
:104710000490072004E00820FDF76EFC04900920B7
:10472000FDF76AFC04460F480078002814D00126E3
:104730002968C878091DFFF744F929686D46CA7AC7
:104740008B7A091D0BC5039233463A4621460498DD
:10475000FBF778FE05B0F0BD0026E9E70120F9E798
:104760008055FF1F2255FF1F10B509490968002910
:104770000CD0002805D101204870FBF78BFD0028E4
:1047800002D00021FFF760FF012010BD002010BD06
:104790008055FF1FF8B50C4602F076F8020021D0D4
:1047A00026201462FDF728FC05062D0E00D1157891
:1047B0009679D01D00901020176AFBF7B3FD040016
:1047C00010D0D0202070002060700920A070E6700A
:1047D0000622201D0099FBF77FFC21462846E76052
:1047E000FBF77CFDF8BD411E152903D9FF2801D038
:1047F000002070470120704770B50A4E054630789A
:104800000C46FF280DD00420FBF78CFD010008D0DA
:10481000D02008704C7002208870CD703078FBF783
:104820005DFD70BD9455FF1FF3B5284D81B028681C
:1048300000284AD04078264E012803D0307800283E
:1048400031D041E001F088FB224F002813D0012035
:10485000FDF7D2FB0446412808D91F4A02213878C7
:10486000FBF72AFD1D483C3C44800EE07D20C00043
:104870002246424303E00020FDF7BEFB0246002A29
:1048800003D002213878FBF70FFC2968022048701A
:104890003078002802D00020307015E0029901988D
:1048A000FFF7D2FE10E00320019CFBF73BFD010067
:1048B00008D0D02008704C700420887028680078D8
:1048C000FBF70CFDFFF7F4F80120FEBD8055FF1F3C
:1048D0002355FF1FB155FF1F60EA00009455FF1FCD
:1048E00030B5094A0021137809E095688C002C5BEB
:1048F000844202D18800401930BD491CC9B2994296
:10490000F3D3002030BD0000BC55FF1F10B50C468E
:10491000FFF7E6FF00280DD0002C00D02060807843
:10492000FE2803D0FF2803D0162010BD172010BD8D
:10493000002010BD022010BDFFB581B0FF201E4633
:10494000174605300A9DFBF7EDFC04001BD0B02094
:1049500020706770029860802671002D06D0204676
:10496000FC2229460830FBF7B7FB05E02046FC2275
:1049700000210830FBF74CFC21460198FBF7AEFC08
:10498000002005B0F0BD1320FBE70000054817220A
:1049900002800988172901D2042070470180002075
:1049A000704700001C55FF1F0020704708B50A46DD
:1049B0000888498888420BD8002809D00023009332
:1049C0001379521DFDF7BAFF002803D0002008BD5F
:1049D000012008BD0A2008BDF3B50D4608884988A6
:1049E000002687B0814215D3002813D000276946DE
:1049F0000F710097002369881A46FDF79FFF040096
:104A00004FD068460079002807D0694649790129C6
:104A100025D008E0012009B0F0BD217802291BD083
:104A200002216A4651711222504301AA61898018FD
:104A30004180684600791223584380181022001DD7
:104A40006168FBF749FB68460079401C0106090EC6
:104A5000684601711FD11AE001216A46517121781F
:104A600002291ED1820001A86189121851806A466C
:104A700012796168920010180222001DFBF72CFBCE
:104A80006A461079401CC0B21071052803D26189B2
:104A90000A48814200D101266089401C80B2002E64
:104AA000A7D068460079002805D001A90798FCF72F
:104AB000FFFD0020AFE70A20ADE70000FFFF000088
:104AC00038B50C4608884988884215D8002813D084
:104AD0002379621D02210B48FCF76FFD00280DD0E1
:104AE00000200090237961882088621DFDF726FF51
:104AF000002805D0002038BD012038BD102038BD69
:104B00000A2038BD888D021108B50A4608884988F0
:104B100088420BD8002809D0002300931379521D36
:104B2000FDF70CFF002803D0002008BD012008BDC0
:104B30000A2008BDF8B500250F4606460C46E037AA
:104B400017E06800205A0021FDF7D2FE002809D0A6
:104B5000017A3046FEF768F8002808D06900615AEB
:104B60002180F8BD6800205A20800120F8BD6D1C0E
:104B7000EDB2B87DA842E4D80020F8BD10B50446D7
:104B800008880021FDF7B4FE002804D0017A2046F1
:104B9000FEF74AF810BD012010BD000030B585B009
:104BA00005466946FCF710FE040026D16846807869
:104BB000C1071E4809D08268002A04D06888694667
:104BC0009047044619E0062417E04268002A05D001
:104BD000688869469047040001D10EE006246846C3
:104BE0004078002809D16846817801730021C1818D
:104BF0000474688803A9FCF71BFDA868002801D08D
:104C0000FBF7AEFB002C05D168468078122807D050
:104C10001B2803D068880121FEF71CF905B030BDC0
:104C2000684640780128F5D1F8E70000C855FF1F15
:104C300070B505460C4608880021FDF759FE00288E
:104C400005D0017A22462846FEF701F870BD012002
:104C500070BD00000149486070470000C855FF1F43
:104C600010B50446801C00F058FDFF20E07010BD18
:104C700010B500F025F8002800D0806810BD002293
:104C80009300CB5A834202D1900040187047521CC7
:104C9000D2B2022AF4D3002070470000074A002154
:104CA000CB00D35A834202D1C80080187047491CF8
:104CB0000906090EF4D0002070470000D052FF1FF3
:104CC0000649896805E08A88824201D18868704770
:104CD00009680029F7D1002070470000C052FF1F6B
:104CE000F8B50746012906D0022924D1012101F097
:104CF0006FFE00281FD13846FFF7D0FF050015D002
:104D000000240D4E0CE0F820696860430818018803
:104D1000002908D0F8220021FBF77AFA641CE4B2DB
:104D200070788442EFD30020C0432880024938467F
:104D30001831FDF785FBF8BDC052FF1FF3B50646DD
:104D400083B008300190002000907088FFF7A6FF24
:104D500007002FD0002523E0F820796868430C185D
:104D60002188002920D00198007801280FD160887F
:104D70000090A3887088A21DFDF76CFD00900028AC
:104D800005D0019900200870049821880180F8223C
:104D900000212046FBF73CFA00206D1C2080EDB27C
:104DA000074840788542D7D30020C0433880009818
:104DB000002802D17088FCF765FC009805B0F0BDB2
:104DC000C052FF1FF3B50546374C064685B008357F
:104DD000F62200212046FBF71BFA03A800902B794E
:104DE000698828886A1DFDF7A9FD074646E02F4A15
:104DF000708812684100515C0022C91FCBB22C4957
:104E0000029300910192284B69468A89F63B394604
:104E1000FDF7BCFB002812D125482989001F828894
:104E200091420CD120492846F6390A30FBF75AF94D
:104E3000002804D0217878898900091948806846BB
:104E40008289698804AB3846FDF7AAFD07462078B9
:104E5000810009194A88002A10D0002F05D06A461F
:104E6000128A401C20708A800AE001060022890D07
:104E7000D2430919401C20708A8006E0002F04D01C
:104E80000C48217800888142B1D32078002806D0D0
:104E900070882146FCF7FEFB002007B0F0BD0698A5
:104EA000298801800A20F8E7A86CFF1F1855FF1F0A
:104EB000C452FF1F1255FF1FF0B585B004460020F5
:104EC0006946888120790E286BD00FDC082823D012
:104ED00004DC022813D0062818D118E0254608352E
:104EE000494F0A281DD00C2810D139E010285DD078
:104EF000122860D0162863D0182879D165E044487C
:104F00004249008808806088FCF79CFB70E003A998
:104F10002046FFF757FF5CE003A9204600F080F928
:104F200057E0288804A9FDF7E3FC010016D060884B
:104F30003B6842009A5C354E521ED2B20023019368
:104F4000029200966A46B31C128AFDF71FFB0028E6
:104F50001ED160883146FCF73BFD49E0012017E097
:104F6000288804A9FDF7C4FC0100F7D060883B68DD
:104F700042009A5C6B88521E244ED2B20193029278
:104F800000966A46B31C128AFDF700FB002803D086
:104F900029886A4691811CE060883146FCF7E8FC6C
:104FA00026E003A9204600F0DDF912E003A920461F
:104FB00000F082F80DE003A9204600F049FA08E06D
:104FC00003A9204600F028F803E003A92046FFF7D4
:104FD000B5FE00280CD06178142909D00B4922793C
:104FE0000A706A4692894A8008716088FCF720FB43
:104FF0002046FDF765FC0748C168002901D020461E
:10500000884705B0F0BD00001855FF1FA86CFF1FB2
:105010001055FF1FC052FF1FF8B504460F46054646
:10502000083400896946FDF763FC06003AD0307AFF
:1050300080060ED568460088FFF71AFE030006D0EA
:105040006888122231469847060002D02BE00E26CF
:1050500029E06E883046FFF721FE010005D1144893
:10506000FFF71CFE01000ED00E80124A002052787D
:1050700007E0F8264B6846439B5B002B05D0401C9D
:10508000C0B29042F5D309260DE04968F82250439A
:1050900008182146FBF720F8002668882146FCF70F
:1050A0005DFC02E00126208838803046F8BD000013
:1050B000FFFF0000C052FF1FF3B58BB000200B9E16
:1050C0000746039004A800903246337B71893089EB
:1050D000504C0D320836FDF731FC05467EE00B984A
:1050E000297A4088FDF7A0FD070003D00C98698954
:1050F000018076E00B984849408809684200895C45
:10510000464B891FC9B20093002202910192414B84
:1051100069460A8AF63B2946FDF738FA070003D0AC
:105120000C99688908805CE00398002834D03B48DB
:105130006188001F8088021D914255D1039909188A
:105140000B984088420034480068805A801F814292
:105150004ADC0399A87A6118087103986989401C90
:1051600080B22218090A401C117180B2039068466F
:10517000028A718807AB2846FDF712FC050011D0A2
:1051800003986946898B2018017103986946401C71
:10519000898B80B2090A0CE02048001F8088001D1E
:1051A0006080D6E70398FF21201801710398401C06
:1051B00080B222181171401C80B218490390091F57
:1051C0008A8814492018F639001DFAF785FF13491B
:1051D0000398091F8988401880B20390002D00D0E1
:1051E0007DE7039800280CD061880398FBF730F91D
:1051F00020700B9821464088FCF7C4FB00200DB0BE
:10520000F0BD002F00D10A270C993088088038465D
:10521000F5E70000A86CFF1F1855FF1FC452FF1FC1
:10522000F3B50746044608378BB04A4804903888DF
:1052300000252E4605906CE007A800903B79798800
:105240007A1D0598FDF77AFB0890002854D0408914
:1052500005900898017A6088FDF7E6FC060060D1A9
:105260003D49608809684200895C3C4B091FC9B20E
:105270000093002202910192364B69468A8BF63BDD
:105280000899FDF783F906004BD1002D37D004981B
:1052900041883248001F8088801C814243D12F4BB7
:1052A0002D491B1F988809682A1860884000085AF1
:1052B000001F824220DC08980499807A49190871FD
:1052C00008996D1C4989E8B20A0A049909180A71FB
:1052D000401CC5B2194604988A881E494019F639FF
:1052E000001DFAF7F9FE1D481D49001F0079281816
:1052F000C5B20598884209D1002D14D123E0174882
:105300000499001F8088801C4880C8E7401C80B238
:1053100005906088410010480068405A001FA8426C
:105320008ADA002D0DD0049841882846FBF790F8C2
:105330000499087060880499FCF732FB00200DB0D6
:10534000F0BD002E00D10A260C9805990180304648
:10535000F5E70000A86CFF1F1855FF1FC452FF1F80
:10536000FFFF0000F3B506460446002085B0354D2A
:1053700000900836288007463046E03004904EE022
:105380007800305A03A9FDF7B3FA01001BD06088FA
:105390002E4B844642002C480068805C0093401EDF
:1053A000C0B2002202900192264B68468289F63BE9
:1053B0006046FDF7EBF8009000280BD07800315ADA
:1053C000069801803BE00120009078000699305A51
:1053D000088034E01D482988001F80880A186088EA
:1053E000430019480068C05A431E9A4204DD401A1F
:1053F0001649091F401E88802988A81C08181349CF
:10540000091F8A880F49F639FAF766FE0F4829887E
:10541000001F8088081828807F1C0498FFB2807DB8
:10542000B84208D960882988420007480068805A35
:10543000401E8142A4DB60882946FCF7BFFA009831
:1054400007B0F0BDA86CFF1F1855FF1FC452FF1F07
:10545000F3B5054683B004460835008901A9FDF778
:1054600047FA2746E8370646002822D0307A8006D9
:105470000ED568468088FFF7FBFB030006D06088E6
:10548000122231469847060002D013E00E2611E0A2
:10549000002000906B88298860882A1DFDF7DAF9C2
:1054A000060007D1787E002807D16088FCF7BAFA99
:1054B00003E00126049829880180787E002802D024
:1054C000002005B0F0BD3046FBE70000F8B504460B
:1054D0000246F82042431948002507464570103718
:1054E0007868002807D00020C100C919401C0006B8
:1054F0004D60000EF8D0124E00213046FAF788FEBB
:10550000002001466143C9B2F82251438B190B496F
:10551000C200103152180021536005E0F8274F43B4
:105520005368491CDD53C9B2A142F7D3401C0006A1
:10553000000EE6D0014844700020F8BDC052FF1FA5
:10554000BA6AFF1F7CB50C78069D022C0FD14C68FF
:105550002678647824023419064EA4B2F44206D1A7
:105560000224DBB200950194FCF782FF7CBD012090
:105570007CBD0000FED6FFFFF8B505461D488542FC
:1055800023D0461C002921D001292BD002291CD16F
:105590000121284601F01CFA002816D12846FFF701
:1055A0009FF9040011D0A078FF280ED0FE2807D064
:1055B00000200090E0781E2314222946FFF7BCF952
:1055C0002046FFF74DFBFF20A070F8BD2846FFF7EF
:1055D00087F90028F9D13046FFF782F90028F4D086
:1055E0000580F8BD2846FFF77BF90400F9D0268036
:1055F000D9E70000FEFF000038B5040010D0A07805
:10560000FF280DD0FE280BD0002000902188E078E4
:105610001E231722FFF790F9FE20A070FF20E070F4
:1056200038BD0000F3B50C468978C1B01E2914D0EE
:105630002E4D6878FF2829D0182927D84808C2009D
:105640002B481218803A976F002F1FD0D06F002878
:105650001CD02078002817D113E04198FFF740F9BB
:1056600005000BD000200090A378E8780022419933
:10567000FFF762F906462846FFF7F2FA304643B0D4
:10568000F0BD6278012A03D1122901D00620F6E785
:1056900002AE0096A3886178A268B8470028EED1D0
:1056A000A0784008C100124808188038C26F02A9CB
:1056B0004198904700280FD061780029DFD1A27867
:1056C00069460A70087168460189418069464198B7
:1056D000FBF7AEFF0020D2E7A378042BCFD00096D3
:1056E000002268784199FFF727F9C8E7BC55FF1FEA
:1056F000248D021100B50346FDF786FA002803D079
:10570000C018401E80B200BD184600BD10B57D24F3
:10571000E4006243FAF7A2FE10BD10B5040008D001
:105720002078FF2805D0FE2803D0FAF79DFEFF2041
:10573000207010BDF7B506460F461020FAF7B6FDEB
:1057400005461020FAF7B2FD0446002D3AD0002C91
:105750002DD010220021FAF75BFD2A462146304663
:1057600001F020FF060023D12878000604D4394632
:10577000284601F029F808E02146284601F024F8DF
:105780003A461149204603F049FA3878000604D415
:105790003846029901F018F80AE02146384601F02F
:1057A00013F809492046029A03F038FA00E013265C
:1057B0002846FAF78DFD002C02D02046FAF788FD26
:1057C0003046FEBD1326F6E7AE8D0211F8B50698F9
:1057D00000271D4614460E46002801D00B20F8BDB8
:1057E00030780021022801D019804DE070680278DD
:1057F000407800021018152280B25202801A03006D
:10580000FAF734FC0504121F1A254100F068FAF774
:1058100083FDC2B20798824200D902462A80F1680D
:105820002046FAF759FC30E0F06802210088298010
:105830002070000A607028E0062028800246F16887
:10584000EEE701202880F068007820701DE0F06805
:10585000002816D008212980017821700188090AC2
:1058600061708178A1704188090AE1700179217124
:105870008188090A61718179A171C088000AE0718B
:1058800003E0298001E0298001273846F8BD10B5E2
:105890000B78840702D50224234301E0FD24234032
:1058A0000B7003070B7802D50824234301E0F7248B
:1058B00023400B7083060B7802D52024234301E09C
:1058C000DF2423400B700A21084201D1810603D551
:1058D00010780C21084304E0002803D11078F3214C
:1058E0000840107010BD0000FFB581B0087800249A
:1058F0000A9E1F460D4602280FD16868017840783D
:1059000000020818152180B24902401A09D0012866
:1059100029D0022848D003283CD00124204605B0D5
:10592000F0BDE868FAF7F8FCC0B2864205D8F01975
:105930000090152803D90D24F0E70724EEE7E86866
:105940003A4680190399FAF7C7FB0098EA6880B2D3
:10595000002111541C4840680028DFD0016800294C
:10596000DCD0002012E0002E12D1022BE3D10399EB
:10597000E8680A784978090251180180124840689D
:105980000028CBD001680029C8D001208847C5E78E
:105990000B24C3E7002EFBD1062BCCD10622E868EE
:1059A0000399FAF799FBB9E7002EF1D1012BC2D187
:1059B00003980078002803D0012801D08024ADE7A7
:1059C000E9680870AAE70000D851FF1F10B5044825
:1059D000C16B034A40321068D06000F075FA10BD08
:1059E0000080004030B5C21F0A2A01D3062030BD16
:1059F000162801D9052030BD0124074D9440002907
:105A000005D0002100F0CAF82868204301E028688A
:105A1000A0432860002030BD00380040162809D877
:105A2000054A01238340D068002901D0184300E0D3
:105A30009843D060704700000038004070B5FF28E0
:105A400014D08207D30E8408094A5E1DA400A5184D
:105A5000AC69F21A0126521C9640761E9E40B44351
:105A600099400C43AC610121FFF7D8FF70BD0000E5
:105A70000038004010B5114C2078002801D00720D4
:105A800010BDFF2131310D48FAF7EAFA01202070EC
:105A90000B490020086348630A49086248620221F2
:105AA0001020FDF717FE1020FDF708FE064A0749F3
:105AB0000D20FAF7DFFC002010BD0000B068FF1FCA
:105AC0000080004080F00040215D0211895C0211DD
:105AD00010B5162801D9052010BD0C4B9C6B012276
